:020000020000FC
:0200000033C00B
:020038003EC1C7
:100068000FEF0DBF08E00EBF0FE304B90EEF0AB99A
:100078000EE307B92C9A2D9AEFD004D185D149D235
:1000880002E004BD04E005BD0CE707BD02E00093F3
:100098006E0000E400937C0007E800937A0040E0DB
:1000A80051E060E000E0009340010093490100E85E
:1000B80010E09BD17894403011F419D0FCCF413036
:1000C80011F472D0F8CF423011F46FD0F4CF43302E
:1000D80011F46CD0F0CF443011F469D0ECCF453036
:1000E80011F466D0E8CF463031F763D0E4CFCAD0F8
:1000F80000E010E0CCD0ECE1F5E0D3D001E010E076
:10010800C6D0ECE2F5E0CDD0F7D10F9301E017E0CF
:10011800BED00F91013081F410914901139514312B
:1001280008F010E0109349011093400100E85DD1F8
:10013800E4E3F5E0B6D0E8CF023089F41091490144
:10014800112311F413E101C01A951093490110937A
:10015800400100E84AD1ECE3F5E0A3D0D5CF033065
:1001680099F690D000E010E092D0ECE4F5E099D058
:100178006DD110E0109349011093400100E835D18A
:1001880081D000E010E083D0ECE1F5E08AD001E016
:1001980010E07DD0ECE2F5E084D001E017E077D004
:1001A800E4E4F5E07ED0B0CF089508950895089569
:1001B800089508951F9314E11A95F1F71F91089572
:1001C8000F931F9300E11AEF1A95F1F70A95D9F7E3
:1001D8001F910F910895002319F0F2DF0A95E9F7AE
:1001E80008953C98E7DF3D98E5DF3C9AE3DF3D9AC8
:1001F800E1DF08953C9ADEDF3D98DCDF3C98DADFEA
:1002080008950F9318E0000F10F03C9A01C03C9835
:10021800D1DF3D98CFDF3D9A1A95A9F73C98CADF00
:100228003D98C8DF3D9AC6DF0F910895DADF1CE7D5
:100238000F93012FE6DF00E8E4DF0F91E2DFDADF5A
:100248000895CFDF1CE70F93012FDBDF00E4D9DF30
:100258000F91D7DFCFDF08953C983D984498459893
:1002680004E1B9DF08E3E2DF05E0B5DF08E3DEDF3C
:1002780001E0B1DF08E3DADF0CE0D8DF06E0D6DF23
:1002880001D0089501E0D2DF02E0A5DF08950F93C1
:10029800002311F000EC01C000E8010FC7DF0F9147
:1002A80008950591002311F0CCDFFBCF08950F933B
:1002B8000FB70F931F937F938F939F93EF93FF93A2
:1002C8000091400110E00A3018F00A501395FBCF56
:1002D80075B174FF17C02D9A012F1127EAE4F3E0D6
:1002E800E00FF11F8491E4E5F3E0E00FF11F949132
:1002F8000BB10F71082B0BB905B1007F092B05B99C
:100308002C9815C02C9A1127EAE4F3E0E00FF11FAE
:100318008491E4E5F3E0E00FF11F94910BB10F71C4
:10032800082B0BB905B1007F092B05B92D98FF9152
:10033800EF919F918F917F911F910F910FBF0F9117
:100348001895E0C060E0C0A0A0E0E0E007000B095D
:100358000C0D0F000F0D0F931F934F935F9343984E
:10036800402F08D0412F06D0439A5F914F911F919B
:100378000F91089558E0419A47FF4198429A440FD7
:1003880042985A95C1F70895399A3A9A3B9A439AEE
:100398000CE011E0E0DF0FE010E0DDDF09E010E045
:1003A800DADF0BE017E0D7DF0AE013E0D4DF0ED086
:1003B80008950F931F9301E0EAE4F1E01191CBDF78
:1003C80003950930D9F71F910F9108950F93EF9373
:1003D800FF93EAE4F1E018E000E001931A95E9F7E9
:1003E800E8DFFF91EF910F9108950F931F934F93BB
:1003F8005F93EF93FF93402F512FEAE4F1E018E069
:1004080000E001931A95E9F7403829F408E10093D0
:100418004D0100934E015F3F89F0550F1127EEE81B
:10042800F4E0E50FF11F059114910A95EAE4F1E073
:10043800E00F4427F41F4081412B4083BADFFF912E
:10044800EF915F914F911F910F9108950F931F9313
:100458004F936F93BBDF40E06AE090E500E8142F0C
:10046800C4DF4395443108F040E0062FB4DE092F7D
:10047800037009F46C5F9A9589F7A8DF6F914F9123
:100488001F910F91089502400120011001080104F5
:100498000202030104010501060107020804080815
:1004A800081008200740068005800480038000911A
:1004B8007A00006400937A0000917A0006FDFCCF70
:1004C8008091780090917900843803E0900760F477
:1004D8008A3802E0900750F4823C01E0900740F42B
:1004E800863900E0900730F000E0089503E00895B1
:1004F80002E0089501E00895DADF0023E9F30F939D
:10050800D6DF0023E9F70F91089508950895089517
:100518000895089541706572746520756D20626F45
:1005280074616F00426F74616F3A2000412020208F
:1005380020202000422020202020200053656C65C8
:1005480063742000476972616E646F20726F6C6516
:0405580074612E009C
:00000001FF
