:020000020000FC
:0200000033C00B
:02003800E5C021
:100068000FEF0DBF08E00EBF0FE304B90EEF0AB99A
:100078000EE307B92C9A2D9A96D0ABD0CCD002E0DB
:1000880004BD04E005BD0CE707BD02E000936E0067
:1000980000E400937C0007E800937A0040E051E018
:1000A80060E07894403011F419D0FCCF413011F45D
:1000B80022D0F8CF423011F41FD0F4CF433011F4DE
:1000C8001CD0F0CF443011F419D0ECCF453011F4E6
:1000D80016D0E8CF463031F713D0E4CF00E010E077
:1000E8007DD0E0E2F2E084D001E011E077D0E0E3F7
:1000F800F2E07ED0FFCF08950895089508950895F9
:1001080008951F9314E11A95F1F71F9108950F931D
:100118001F9300E11AEF1A95F1F70A95D9F71F9185
:100128000F910895002319F0F2DF0A95E9F7089571
:100138003C98E7DF3D98E5DF3C9AE3DF3D9AE1DF55
:1001480008953C9ADEDF3D98DCDF3C98DADF0895BD
:100158000F9318E0000F10F03C9A01C03C98D1DFD3
:100168003D98CFDF3D9A1A95A9F73C98CADF3D988C
:10017800C8DF3D9AC6DF0F910895DADF1CE70F93B9
:10018800012FE6DF00E8E4DF0F91E2DFDADF089510
:10019800CFDF1CE70F93012FDBDF00E4D9DF0F91DE
:1001A800D7DFCFDF08953C983D984498459804E1FF
:1001B800B9DF08E3E2DF05E0B5DF08E3DEDF01E0F1
:1001C800B1DF08E3DADF0CE0D8DF06E0D6DF01D0E4
:1001D800089501E0D2DF02E0A5DF08950F93002320
:1001E80011F000EC01C000E8010FC7DF0F9108957E
:1001F8000591002311F0CCDFFBCF08950F930FB7C3
:100208000F930F910FBF0F911895089508950895B2
:100218000895089508950895526F6C657461204695
:1002280072616E6365736100417065727465205315
:06023800656C65637400B3
:00000001FF
