:020000020000FC
:0200000033C00B
:0200380062C1A3
:100068000FEF0DBF08E00EBF0FE304B90EEE0AB99B
:100078000EE307B92C9A2D9ABFD0D4D05BD240D4C6
:1000880002E004BD04E005BD0CE707BD02E00093F3
:100098006E0000E400937C0007E800937A0001E01A
:1000A8000093810004E00093520149E051E060E0D0
:1000B80000E00093590100E00093530100935701B9
:1000C80000935801009355010093560107E00093EF
:1000D800540100E00093400101E00093400100E07A
:1000E8000093490100E810E056D201E0F4D3789477
:1000F800403019F40E94EA04FBCF413019F40E9401
:100108003C06F6CF423019F40E942407F1CF433061
:1001180019F40E942507ECCF443019F40E944808CE
:10012800E7CF453019F40E945608E2CF463019F45B
:100138000E94FD08DDCF473019F40E943D05D8CF55
:10014800483019F40E948605D3CF493089F60E94B9
:10015800C905CECF1F9314E11A95F1F71F910895A1
:100168000F931F9300E11AEF1A95F1F70A95D9F743
:100178001F910F910895002319F0F2DF0A95E9F70E
:1001880008953C98E7DF3D98E5DF3C9AE3DF3D9A28
:10019800E1DF08953C9ADEDF3D98DCDF3C98DADF4A
:1001A80008950F9318E0000F10F03C9A01C03C9896
:1001B800D1DF3D98CFDF3D9A1A95A9F73C98CADF61
:1001C8003D98C8DF3D9AC6DF0F910895DADF1CE736
:1001D8000F93012FE6DF00E8E4DF0F91E2DFDADFBB
:1001E8000895CFDF1CE70F93012FDBDF00E4D9DF91
:1001F8000F91D7DFCFDF08953C983D9844984598F4
:1002080004E1B9DF08E3E2DF05E0B5DF08E3DEDF9C
:1002180001E0B1DF08E3DADF0CE0D8DF06E0D6DF83
:1002280001D0089501E0D2DF02E0A5DF08950F9321
:10023800002311F000EC01C000E8010FC7DF0F91A7
:1002480008950591002311F0CCDFFBCF08950F939B
:100258001F934F935F936F937F93682F792F40E09D
:1002680080E197E26817790720F0681B790B4395BE
:10027800F9CF442329F0405D042FB3DF51E001C0DA
:1002880050E040E088EE93E06817790720F0681B9B
:10029800790B4395F9CF442311F4552321F0405DA0
:1002A800042F9FDF51E040E0643600E0700720F043
:1002B800645670404395F8CF442311F4552321F038
:1002C800405D042F8EDF51E040E06A3018F06A503C
:1002D8004395FBCF442311F4552319F0405D042FB7
:1002E80080DF605D062F7DDF7F916F915F914F9179
:1002F8001F910F9108950F930FB70F931F937F933B
:100308008F939F93EF93FF93483019F0493009F08A
:100318009DC00091530103950770009353017727FF
:1003280010915401011708F001C074601091550133
:10033800011708F001C0726010915601011708F00A
:1003480001C0786000C0009157010395023308F49A
:1003580044C000E0009357011091400113951830F4
:1003680008F010E01093400100915801003099F016
:10037800013011F110915501112349F01A9510938C
:1003880055011091540113951093540128C000E0B1
:100398000093580124C010915401112349F01A9573
:1003A800109354011091560113951093560117C0DC
:1003B80001E00093580113C010915601112349F030
:1003C8001A951093560110915501139510935501E4
:1003D80006C002E00093580102C000935701009143
:1003E800400115B114FF19C02D9A1127EAEEF4E067
:1003F800E00FF11F8491E2EFF4E0E00FF11F949118
:10040800807E7E700BB10171802B872B8BB905B173
:10041800007F092B05B92C9850C02C9A1127EAEFB8
:10042800F4E0E00FF11F8491E2E0F5E0E00FF11F46
:100438009491807E7E700BB10171802B872B8BB9D4
:1004480005B1007F092B05B92D9837C000914001EF
:1004580010E00A3018F00A501395FBCF75B174FFFD
:1004680017C02D9A012F1127E6EDF4E0E00FF11FD8
:100478008491E0EEF4E0E00FF11F94910BB10F715D
:10048800082B0BB905B1007F092B05B92C9815C0AD
:100498002C9A1127E6EDF4E0E00FF11F8491E0EECD
:1004A800F4E0E00FF11F94910BB10F71082B0BB919
:1004B80005B1007F092B05B92D98FF91EF919F9108
:1004C8008F917F911F910F910FBF0F911895E0C0E9
:1004D80060E0C0A0A0E0E0E007000B090C0D0F00F1
:1004E8000F0D2000000000000000000000000001C7
:1004F800020400204080000000000000000001000D
:1005080000000F931F934F935F934398402F08D099
:10051800412F06D0439A5F914F911F910F910895F3
:1005280058E0419A47FF4198429A440F42985A9599
:10053800C1F70895399A3A9A3B9A439A0CE011E028
:10054800E0DF0FE010E0DDDF09E010E0DADF0BE0CC
:1005580017E0D7DF0AE013E0D4DF0ED008950F9339
:100568001F9301E0EAE4F1E01191CBDF0395093034
:10057800D9F71F910F9108950F93EF93FF93EAE432
:10058800F1E018E000E001931A95E9F7E8DFFF9140
:10059800EF910F9108950F931F934F935F93EF93EC
:1005A800FF93402F512FEAE4F1E018E000E00193B7
:1005B8001A95E9F7403829F408E100934D010093B2
:1005C8004E015F3F89F0550F1127E0E0F6E0E50F97
:1005D800F11F059114910A95EAE4F1E0E00F442730
:1005E800F41F4081412B4083BADFFF91EF915F9167
:1005F8004F911F910F9108950240012001100108A9
:1006080001040202030104010501060107020804AE
:100618000808081008200740068005800480038029
:100628000F934F93AF93BF93EF93FF93AAE4B1E077
:1006380048E005910D934A95E1F791DFFF91EF911D
:10064800BF91AF914F910F910895183C3C183C7E93
:100658007E00103C5038143C10103C42020408083C
:100668000008183C3C66FFFF660000917A000064B1
:1006780000937A0000917A0006FDFCCF8091780003
:1006880090917900843803E0900760F48A3802E09A
:10069800900750F4823C01E0900740F4863900E06E
:1006A800900730F000E0089503E0089502E008950F
:1006B80001E00895DADF0023E9F30F93D6DF002382
:1006C800E9F70F9108950F931F9302E31AE025D0DD
:1006D8001F910F9108950F931F9304E610E51DD005
:1006E8001F910F9108950F931F9304E61CE315D0F3
:1006F80004E141DD0DE410E510D004E13CDD02E346
:1007080018E70BD01F910F9108950F931F930AEFCD
:1007180018E703D01F910F9108950F931F932F93FC
:100728003F93002371F0549A202F312F5C9A022FA7
:1007380015D05C98022F12D03A95C1F754985C985E
:1007480008C020E0312F022F09D0022F07D03A9598
:10075800D1F73F912F911F910F9108951F931AE19F
:100768001A95F1F70A95D9F71F9108951F932F93BA
:100778003F93EF93FF9300915901003021F4E4EE89
:10078800F4E13EE115C0013021F4E2E6F5E13AE09A
:100798000FC0023021F4E0E4F6E13AE009C003308A
:1007A80021F4E2EDF6E13FE003C0E8E6F7E13AE0E4
:1007B8003F9325913591222319F4332309F450C02E
:1007C800109149011395143108F010E01093490174
:1007D80000E80E94CF02132F00915901002349F02D
:1007E8001F77013031F44F93412F46954695140FEA
:1007F8004F91112399F0012F003108F000E1101BEF
:100808001F93102F022F0E9491031F910E943903FA
:10081800002379F3202F0F91022F24C00091590152
:10082800002311F037FDC5CF3F913F93032F1127C8
:100838000A5010F01395FCCF112389F0012F0F9364
:100848000E943903002329F0202F0F913F91022F96
:1008580009C00AE00E94BF000F910A9581F7A9CF4D
:100868003F9100E0FF91EF913F912F911F910895E3
:1008780059985A985B9808950F93EF93FF93F8DF70
:10088800053290F4E8EBF8E0E00F0027F01F049140
:10089800003029F0013029F0023029F005C0599ABA
:1008A80003C05A9A01C05B9AFF91EF910F91089586
:1008B8000001020102010201020102020102010219
:1008C8000102010102010201020102010202010208
:1008D8000102010201000F93CBDF013039F0023031
:1008E80039F0033039F0043039F008C05A9A06C09C
:1008F8005B9A04C0599A02C05A9A599A0F9108955E
:100908000F931F93EF93FF934F93E0E0F1E044E0E0
:1009180003E0019308EE01930EE010E011930A95AD
:10092800E9F74A95A9F74F91FF91EF911F910F9120
:1009380008950F931F938F93E0E0F1E0052F0A9538
:1009480031F080E11127E80FF11F0A95E1F78F9147
:100958001F910F910895EF93FF93EBDF91918081A1
:10096800FF91EF910895EF93FF93E3DF91938083D5
:10097800FF91EF910895EF93FF93DBDF0281FF91E1
:10098800EF910895EF93FF93D4DF0283FF91EF91E6
:100998000895EF93FF93CDDF0381148195818681BC
:1009A800FF91EF910895EF93FF93C3DF03831483BF
:1009B80095838683FF91EF9108950F93109184009A
:1009C800153210F01552FCCF0F9108951FD072DE2A
:1009D8000F930F91013081F4152F13950091520157
:1009E8000395101708F011E0512F50934001052F7F
:1009F80072DF69DE0BD0EBCF023011F447E00895C7
:100A0800033029F768DE41E051E008950F931F9302
:100A18008F939F93EF93FF9350934001052F5BDFD4
:100A2800E2E5F6E0FDDDFEDB00E010E000DC00E5DD
:100A3800D8DB052F005DD5DB7CDF028100FD01C01E
:100A480006C008E2CEDB00E5CCDB09E2CADBECE05D
:100A5800FCE0F7DB80DFFBDB01E010E0E8DBE4E152
:100A6800FCE0EFDBFF91EF919F918F911F910F9128
:100A7800089524D01FDE0F930F91013069F46BDFC6
:100A88008C3A16E2910728F414E6810F10E0911FC2
:100A98006ADF19DE13D0EECF023059F45CDF803004
:100AA80010E09107B1F314E6811B10E0910B5BDFB6
:100AB800F0CF0330F9F60FDE40E008950F931F934F
:100AC8008F939F93EF93FF93EAE5F6E0A9DDAADB06
:100AD80000E010E0ACDB00E584DB052F005D81DB86
:100AE800EAE2FCE0AEDB37DFB2DB01E010E09FDBDF
:100AF800E6E3FCE0A6DBFF91EF919F918F911F91B8
:100B08000F91089521D0D6DD0F930F91013049F44C
:100B1800109152011395153008F011E0109352010D
:100B28000BC0023061F4109152011A95113008F48B
:100B380014E01093520100C0C6DD06D0E4CF0330A4
:100B480011F7C9DD40E008950F931F938F939F938A
:100B5800EF93FF93EAE6F6E063DD64DB00E010E084
:100B680066DBEAE4FCE06DDB01E010E060DB80912D
:100B7800520199276CDBEAE5FCE063DBFF91EF911A
:100B88009F918F911F910F9108952F933F936F938A
:100B98007F9321D00E94BA030023E1F3033079F454
:100BA8000E9439030023E1F710915901139515307C
:100BB80008F010E0109359010E946F03EACF0E94D9
:100BC80039030023E1F70E946F0348E07F916F919A
:100BD8003F912F9108950F931F938F939F93EF93B6
:100BE800FF930E94160100E010E00E941B01E8E656
:100BF800FCE00E942501FF91EF919F918F911F9139
:100C08000F9108952042616C3A200000413A4D75D9
:100C180064617220423A4372656420533A476972AC
:100C28006100205365742042616C3A200000413A0B
:100C38002B31303020423A2D31303020533A4F4B4F
:100C48000000517464204A6F6761646F7265733A7B
:100C58000000202020202028412F422F5329000067
:100C6800526F6C657461204672616E6365736100D2
:100C78000E9426070E945E030F930E949D04028132
:100C880000FDD5C00F91603029F0162F1F77113065
:100C9800F1F054C0013049F40E949D0414811123DD
:100CA80009F41BE21A95148370C0023049F40E94BB
:100CB8009D04148113951B3208F010E0148365C05D
:100CC800033021F40E946F0361E05FC0D3CF01308D
:100CD800E1F40E94AF04282F392F0E949D049581CA
:100CE80086818217930770F414E6810F10E0911F34
:100CF8002817390710F4822F932F0E949D0495839B
:100D0800868343C00E948903B5CF023081F40E94D4
:100D18009D0495818681182F192BA1F314E6811B58
:100D280010E0910B0E949D04958386832EC00330AA
:100D380021F40E946F0362E028C09CCF0130D9F0F3
:100D48000230C9F0033001F567FD1AC00E946F0335
:100D58000E949D0404810E94F7070E949D0403835A
:100D68001483358126810E94AF04821B930B0E9455
:100D7800B70460E00FC00E94670310E8612705C050
:100D88000E946F0360E001C075CF0E9467030E9454
:100D9800260770CF5395009152010395501718F408
:100DA8000E94260767CF0E94FD060023F9F40E94DF
:100DB800160100E010E00E941B01ECE6F0E10E9441
:100DC800250101E010E00E941B01EEE7F0E10E941E
:100DD80025010E94890300E10F930AEF0E94BF00DA
:100DE8000F910A95C9F751E040E0089551E044E0B9
:100DF80008951F934F935F93EF93FF9351E00091F2
:100E08005201051768F05F93552F0E949D045F916A
:100E180005811681012B11F45395F1CF01E001C032
:100E280000E0FF91EF915F914F911F9108950F910D
:100E3800033019F00E9489031DCF0E946F03AACFC7
:100E4800089508950F931F938F939F93EF93FF93A4
:100E580050934001052F0E946F040E941601E2E69C
:100E6800F6E00E9414030E949D04028100FD93C0D5
:100E7800062F0F77023009F45BC000E010E00E94F3
:100E88001B0100E50E94F500052F005D0E94F5009A
:100E98000AE30E94F50000E20E94F5000E949D040A
:100EA8000481063068F4E0E2F0E1E00FE00F11277A
:100EB800F11F05911491E02FF12F0E9425010BC01D
:100EC800E2E5F0E10E9425010E949D04848186509C
:100ED80099270E942B01062F0F77002331F400E297
:100EE8000E94F5000CE30E94F50001E010E00E946A
:100EF8001B01E0E0F0E10E9425010E949D0495811C
:100F080086810E942B01062F0F77013031F400E211
:100F18000E94F5000CE30E94F500E6E0F0E10E9473
:100F28002501FF91EF919F918F911F910F91089546
:100F380000E010E00E941B0100E50E94F500052F6B
:100F4800005D0E94F500E8E5F0E10E94250167FDDB
:100F580005C0E0E6F0E10E94250104C0E4E6F0E106
:100F68000E94250101E010E00E941B01E0E0F0E191
:100F78000E9425010E949D04958186810E942B0173
:100F8800E6E0F0E10E942501FF91EF919F918F919A
:100F98001F910F91089500E010E00E941B0100E5E9
:100FA8000E94F500052F005D0E94F500E0E1F0E1E8
:100FB8000E94250101E010E00E941B01E0E0F0E141
:100FC8000E9425010E949D04958186810E942B0123
:100FD800EAE1F0E10E942501FF91EF919F918F9145
:100FE8001F910F910895063018F4102F01E008950D
:100FF800102F165000E0089541706F733A002028B2
:10100800412F422F532900003A2050524953414F53
:1010180000002028532900002C1036103C104010E6
:1010280046104C105645524D454C484F0000415A09
:10103800554C000050415200494D50415200424128
:1010480049584F00414C544F00004E554D3A20002E
:1010580020436F6E663A200053494D00564F4C545A
:10106800415200004572726F3A2053656D204170FD
:101078006F7374610000566F6C746120702F204D7F
:10108800656E752E2E2E00000E94160100E010E0FD
:101098000E941B01E6E7F4E10E9425010E94FE0878
:1010A80045E008956F937F938F939F93EF93FF93FA
:1010B80051E00E949D0472816381448135812681BB
:1010C8007F936F934F933F932F930E9490092F9193
:1010D8003F917F916F914F910E94160100E010E0BF
:1010E8000E941B0100E50E94F500052F005D0E948B
:1010F800F500022F032B29F4ECECF4E10E94250102
:1011080053C040FD38C00E949D04028100FD2EC0DE
:1011180040914001062F172F0E94F5090023D9F0AE
:101128000E947703E4EBF4E10E942501613071F03D
:10113800822F932F6627772703E2680F791F0A9576
:10114800E1F7862F972F0E942B012EC0822F932F15
:101158000E942B0129C00E948903E0ECF4E10E945F
:101168002501822F932F0E942B011EC0E4EAF4E18F
:101178000E94250119C040914001062F172F0E9497
:10118800F509002359F00E947703E6E8F4E10E948C
:101198002501822F932F0E942B0106C00E948903EC
:1011A800E4E9F4E10E94250101E010E00E941B013E
:1011B800E8EDF4E10E9425010E94AF040E942B0192
:1011C8001F931EE00AEF0E94BF001A95D9F71F91DE
:1011D8005395009152010395501708F001C069CF4B
:1011E80051E040E0FF91EF919F918F917F916F9136
:1011F800089508954F935F936F937F938F939F9371
:10120800EF93FF930E94E104612F7AE4760F6F93C6
:1012180050E07F935F93EAEFF2E1E50F0027F01FBC
:10122800849180934001082F0E944004652F2FD09D
:1012380000E8142F0E94CF020E9467035F917F91FC
:10124800072F41D00E94BF005395553208F050E057
:101258007A95F9F66F91EAEFF2E1E60F0027F01FB1
:1012680084918093400113D04093490100E8142FE2
:101278000E94CF02082F0E944004182FFF91EF917F
:101288009F918F917F916F915F914F9108950F93E7
:101298008F939F938827992704E1860F4427941FEB
:1012A8000A95D9F74427853200E0900720F0855247
:1012B80090404395F8CF4E5F443108F044519F91D8
:1012C8008F910F910895083250F40E3150F4043183
:1012D80050F40A3050F4053050F40AEF08950AE04B
:1012E800089504E1089508E2089500E5089506E9DF
:1012F800089500200F13041502191122061B0D244E
:101308000B1E08170A0518102101140E1F091612C2
:101318001D071C0C23031A000F931F934F935F9311
:101328006F937F938F939F93EF93FF9302DB0281D9
:1013380000FD39C04091400195818681082F092B15
:1013480009F444C0442361F40381013021F402818B
:10135800016002833BC01481112309F034C00AC024
:10136800038114813ED0002309F42DC0038101308C
:1013780009F40EC0958186816627772704E2680FF5
:10138800791F0A95E1F7E7DA860F971FECDA1BC099
:1013980095818681880F991F682F792FDCDA860F4F
:1013A800971FE1DA10C0038114817581668140912D
:1013B800400117D0002321F0CEDA860F971FD3DA29
:1013C80002810E7F028300E005830683FF91EF917F
:1013D8009F918F917F916F915F914F911F910F9185
:1013E80008951F935F936F93003019F4411759F1D3
:1013F8002CC0103029F4542F2DD0513021F125C0A4
:10140800113029F4542F26D05230E9F01EC0123082
:1014180031F44423D1F0542F5170A9F016C0133081
:1014280031F4442391F0542F517069F40EC01430F4
:1014380029F4442351F0433130F007C0153029F422
:10144800433108F402C001E001C000E06F915F91F0
:101458001F910895EF93FF930F93E8EBF8E0E50FE2
:101468000027F01F54910F91FF91EF91089547695C
:1014780072616E646F20726F6C6574612E00204C0F
:101488004942455241444F21202B000020504552EB
:101498004445552050524953414F00002056414978
:1014A80020502F2050524953414F21002047414E90
:1014B800484F5521202B00002050455244455521C6
:1014C800202D0000204E414F204A4F474F55000025
:1014D8004E6F766F2042616C3A200000CA62CA6281
:1014E800BF68AA75AA75BF68CA62E358FF4EFF4E67
:1014F800E358CA62CA94E32CE3B0CA62CA62BF68FE
:10150800AA75AA75BF68CA62E358FF4EFF4EE35832
:10151800CA62E394FF27FF9CE358E358CA62FF4E70
:10152800E358CA31BF34CA62FF4EE358CA31BF34E8
:10153800CA62E358FF4EE358AAEACA62CA62BF68A1
:10154800AA75AA75BF68CA62E358FF4EFF4EE358F2
:10155800CA62E394FF27FF9C000055FF55FF551C06
:10156800805E726A6577607E55FF55FF551C80FF67
:10157800803D80FF803D4CFF4CFF4C3E607E55FF18
:10158800550E4CFF4C1F44FF443340FF40FF407A48
:1015980080FF803D80FF803D60FF607C55FF550ED9
:1015A800607E6577726A65FF656E607E6577726AD0
:1015B800805E87FF8733805E726A6577805E72FF20
:1015C80072FF72FF72FF727E55FF55FF551C805ED9
:1015D800726A6577607E55FF55FF551C80FF803D18
:1015E80080FF803D4CFF4CFF4C3E607E55FF550E02
:1015F8004CFF4C1F44FF443340FF40FF407A80FFBC
:10160800803D80FF803D60FF607C55FF550E607E09
:101618006577726A65FF656E607E6577726A805E5F
:1016280072FF72546577726A805E875980FF80FF07
:1016380080FF80FF8038000098FF98FF9806CA62F4
:10164800BF67AAFFAA69BF67CA62E3FFE32FE35730
:10165800BF6798FF98FF9806AA74BF67CAFFCAFFBA
:10166800CA27BF67AAFFAA6998FF98FF9806BFFF15
:10167800BF50E3FFE32FE3FFE32F004DAAFFAAFFCC
:10168800AA5E8FFF8F0B72FF72FF725C80FF801B58
:101698008FFF8F0B98FF98FF98FF9808BF6798FFF8
:1016A80098FF9806AA74BF67CAFFCA44CA62BF6790
:1016B800AAFFAA6998FF98FF9806BFFFBF50E3FFEB
:1016C800E32FE3FFE32F004D000080FF80FF80FF42
:1016D800803A80FF80FF80FF803A80FF80FF80FF94
:1016E800803AA1FFA1FFA1086BFF6B0480FF80FF78
:1016F80080FF803AA1FFA1FFA1086BFF6B0480FF68
:1017080080FF80FF80FF80FF80FF807455FF55FFBA
:1017180055FF55FF55FF551A55FF55FF55FF55FF06
:1017280055FF551A55FF55FF55FF55FF55FF551ADB
:1017380050FF50FF50FF50FF50136BFF6B0487FFA3
:1017480087FF87FF8723A1FFA1FFA1086BFF6B0419
:1017580080FF80FF80FF80FF80FF80FF8074000093
:101768004CFF4C434CFF4C43003A4CFF4C43003A6F
:1017780060FF601B4CFF4C4340FF40FF40FF40515F
:1017880000748074007460FF60FF60FF60518074B3
:10179800007498FF98FF982672FF72FF720565FF24
:1017A80065FF65276BFF6B0B72FF72FF720580FF89
:1017B800802E4CFF4CFF4C2640FF40FF405C39FF19
:1017C80039FF39FF39FF390A48FF484E40FF406862
:1017D800003A4CFF4CFF4CFF4C0860FF601B55FF64
:1017E800552F65FF65FF65FF653A60FF60FF60FF85
:1017F80060518074007498FF98FF982672FF72FFFA
:10180800720565FF65FF65276BFF6B0B72FF72FF43
:10181800720580FF802E4CFF4CFF4C2640FF40FF96
:10182800405C39FF39FF39FF39FF390A48FF484E14
:1018380040FF4068003A4CFF4CFF4CFF4C0860FFEB
:10184800601B55FF552F65FF65FF65FF653A0074FE
:1018580040FF406844FF445A48FF484E50FF50FF3D
:1018680050734CFF4C43003A787B72FF7203BF4DB4
:10187800003A72FF720360FF601B55FF552F00741A
:1018880050FF50FF5073003A55FF55FF55FF55FF65
:10189800550E60FF60FF60FF60FF606C00FF00692D
:1018A800007440FF406844FF445A48FF484E50FFC8
:1018B80050FF50734CFF4C43003A787B72FF720321
:1018C800BF4D003A72FF720360FF601B55FF552F32
:1018D800007450FF50FF5073003A55FF55FF55FFF5
:1018E80055FF550E60FF60FF60FF60FF606C00FFF2
:1018F800006960FF601B60FF60FF603660FF601B6F
:10190800003A60FF601B55FF55FF555E4CFF4C4386
:1019180060FF60FF603672FF720380FF80FF80FF08
:10192800805160FF601B60FF60FF603660FF601BD6
:10193800003A60FF601B55FF552F4CFF4C4300FFDA
:1019480000FF00FF005260FF601B60FF60FF603611
:1019580060FF601B003A60FF601B55FF55FF555E36
:101968004CFF4C4360FF60FF603672FF720380FFDC
:1019780080FF80FF80514CFF4C434CFF4C43003AA2
:101988004CFF4C43003A60FF601B4CFF4CFF4CFF80
:101998004C0840FF40FF40FF4051007480FF8068C2
:1019A800007460FF60FF60FF60518074007498FFEE
:1019B80098FF982672FF72FF720565FF65FF65271D
:1019C8006BFF6B0B72FF72FF720580FF802E4CFF5E
:1019D8004CFF4C2640FF40FF405C39FF39FF39FF80
:1019E80039FF390A48FF484E40FF4068003A4CFF2B
:1019F8004CFF4CFF4C0860FF601B55FF552F65FFDF
:101A080065FF65FF653A60FF60FF60FF60518074A5
:101A1800007498FF98FF982672FF72FF720565FFA1
:101A280065FF65276BFF6B0B72FF72FF720580FF06
:101A3800802E4CFF4CFF4C2640FF40FF405C39FF96
:101A480039FF39FF39FF390A48FF484E40FF4068DF
:101A5800003A4CFF4CFF4CFF4C0860FF601B55FFE1
:101A6800552F65FF65FF65FF653A4CFF4C4360FFE6
:101A780060FF60368074007478FF787872FF7203B4
:101A880048FF48FF48FF481D48FF484E72FF72FF55
:101A980072FF72FF720B55FF55FF550739FF39FF6B
:101AA80039FF390839FF39FF39FF390839FF39FF5C
:101AB80039FF390840FF40FF405C48FF48FF48367F
:101AC8004CFF4C4360FF60FF603672FF720380FF7B
:101AD80080FF80FF80514CFF4C4360FF60FF603601
:101AE8008074007478FF787872FF720348FF48FFAB
:101AF80048FF481D48FF484E72FF72FF72FF72FF91
:101B0800720B65FF651348FF48FF48FF481D48FFF3
:101B1800484E48FF48FF48364CFF4CFF4C2655FFBF
:101B280055FF550760FF601B98FF98449861BFFFF9
:101B3800BFFFBF384CFF4C4360FF60FF60368074C6
:101B4800007478FF787872FF720348FF48FF48FFF7
:101B5800481D48FF484E72FF72FF72FF72FF720BFA
:101B680055FF55FF550739FF39FF39FF390839FF48
:101B780039FF39FF390839FF39FF39FF390840FF84
:101B880040FF405C48FF48FF48364CFF4C4360FF2D
:101B980060FF603672FF720380FF80FF80FF805114
:101BA8004CFF4C4360FF60FF60368074007478FF20
:101BB800787872FF720348FF48FF48FF481D48FFC6
:101BC800484E72FF72FF72FF72FF720B65FF65135A
:101BD80048FF48FF48FF481D48FF484E48FF48FF58
:101BE80048364CFF4CFF4C2655FF55FF550760FF04
:101BF800601B98FF98449861BFFFBFFFBF3860FF24
:101C0800601B60FF60FF603660FF601B003A60FF8A
:101C1800601B55FF552F4CFF4C4300FF00FF00FF92
:101C2800005260FF601B60FF60FF603660FF601B52
:101C3800003A60FF601B55FF55FF555E4CFF4C4353
:101C480060FF60FF603672FF720380FF80FF80FFD5
:101C580080514CFF4C434CFF4C43003A4CFF4C43E3
:101C6800003A60FF601B4CFF4CFF4CFF4C0840FFE4
:101C780040FF40FF4051007480FF806800744CFFB3
:101C88004C4360FF60FF60368074007478FF78789A
:101C980072FF720348FF48FF48FF481D48FF484E3F
:101CA80072FF72FF72FF72FF720B55FF55FF5507E7
:101CB80039FF39FF39FF390839FF39FF39FF39084A
:101CC80039FF39FF39FF390840FF40FF405C48FFC2
:101CD80048FF48364CFF4C4360FF60FF603672FF98
:101CE800720380FF80FF80FF80514CFF4C4360FFF0
:101CF80060FF60368074007478FF787872FF720332
:101D080048FF48FF48FF481D48FF484E72FF72FFD2
:101D180072FF72FF720B65FF651348FF48FF48FFAB
:101D2800481D48FF484E48FF48FF48364CFF4CFFC7
:101D38004C2655FF55FF550760FF601B98FF9844D8
:101D48009861BFFFBFFFBF3860FF60FF60FF605151
:101D580080FF80FF805D98FF984472FF724465FFA2
:101D6800655D72FF724478FF783A6BFF6B5078FFBD
:101D7800783A8074AA5798FF98FF98FF98FF984C74
:021D8800000059
:00000001FF
