:020000020000FC
:0200000033C00B
:0200380040C1C5
:100068000FEF0DBF08E00EBF0FE304B90EEF0AB99A
:100078000EE307B92C9A2D9A9DD0B2D087D1C7D25A
:1000880002E004BD04E005BD0CE707BD02E00093F3
:100098006E0000E400937C0007E800937A0001E01A
:1000A8000093810004E00093520148E051E060E0D1
:1000B80001E00093400100E00093490100E810E0EE
:1000C80096D101E075D27894403011F406D3FCCF74
:1000D800413011F40BD4F8CF423011F4CCD4F4CF22
:1000E800433011F4C9D4F0CF443011F4B9D5ECCF72
:1000F800453011F4BFD5E8CF463011F44FD6E4CFE0
:10010800473011F439D3E0CF4830F1F67ED3DCCF55
:100118001F9314E11A95F1F71F9108950F931F93F8
:1001280000E11AEF1A95F1F70A95D9F71F910F9187
:100138000895002319F0F2DF0A95E9F708953C982D
:10014800E7DF3D98E5DF3C9AE3DF3D9AE1DF08957C
:100158003C9ADEDF3D98DCDF3C98DADF08950F93A8
:1001680018E0000F10F03C9A01C03C98D1DF3D9890
:10017800CFDF3D9A1A95A9F73C98CADF3D98C8DFAA
:100188003D9AC6DF0F910895DADF1CE70F93012F20
:10019800E6DF00E8E4DF0F91E2DFDADF0895CFDF82
:1001A8001CE70F93012FDBDF00E4D9DF0F91D7DFC6
:1001B800CFDF08953C983D984498459804E1B9DF0D
:1001C80008E3E2DF05E0B5DF08E3DEDF01E0B1DFE9
:1001D80008E3DADF0CE0D8DF06E0D6DF01D00895C7
:1001E80001E0D2DF02E0A5DF08950F93002311F0AC
:1001F80000EC01C000E8010FC7DF0F9108950591D9
:10020800002311F0CCDFFBCF08950F931F934F937A
:100218005F936F937F93682F792F40E080E197E297
:100228006817790720F0681B790B4395F9CF4423A9
:1002380029F0405D042FB3DF51E001C050E040E0F9
:1002480088EE93E06817790720F0681B790B4395CF
:10025800F9CF442311F4552321F0405D042F9FDF8B
:1002680051E040E0643600E0700720F064567040CA
:100278004395F8CF442311F4552321F0405D042F12
:100288008EDF51E040E06A3018F06A504395FBCFAA
:10029800442311F4552319F0405D042F80DF605D7D
:1002A800062F7DDF7F916F915F914F911F910F9185
:1002B80008950F930FB70F931F937F938F939F9377
:1002C800EF93FF930091400110E00A3018F00A50B4
:1002D8001395FBCF75B174FF17C02D9A012F112705
:1002E800EEE4F3E0E00FF11F8491E8E5F3E0E00FBE
:1002F800F11F94910BB10F71082B0BB905B1007F59
:10030800092B05B92C9815C02C9A1127EEE4F3E0B7
:10031800E00FF11F8491E8E5F3E0E00FF11F9491FD
:100328000BB10F71082B0BB905B1007F092B05B96B
:100338002D98FF91EF919F918F917F911F910F9130
:100348000FBF0F911895E0C060E0C0A0A0E0E0E00A
:1003580007000B090C0D0F000F0D0F931F934F9300
:100368005F934398402F08D0412F06D0439A5F915E
:100378004F911F910F91089558E0419A47FF419876
:10038800429A440F42985A95C1F70895399A3A9A71
:100398003B9A439A0CE011E0E0DF0FE010E0DDDF6C
:1003A80009E010E0DADF0BE017E0D7DF0AE013E03E
:1003B800D4DF0ED008950F931F9301E0EAE4F1E033
:1003C8001191CBDF03950930D9F71F910F9108954B
:1003D8000F93EF93FF93EAE4F1E018E000E0019354
:1003E8001A95E9F7E8DFFF91EF910F9108950F93C0
:1003F8001F934F935F93EF93FF93402F512FEAE49E
:10040800F1E018E000E001931A95E9F7403829F483
:1004180008E100934D0100934E015F3F89F0550FAD
:100428001127E8E5F4E0E50FF11F059114910A950D
:10043800EAE4F1E0E00F4427F41F4081412B4083B8
:10044800BADFFF91EF915F914F911F910F9108953E
:100458000240012001100108010402020301040105
:1004680005010601070208040808081008200740CB
:1004780006800580048003800F934F93AF93BF934A
:10048800EF93FF93AAE4B1E048E005910D934A95F4
:10049800E1F791DFFF91EF91BF91AF914F910F91EC
:1004A8000895183C3C183C7E7E00103C5038143CA3
:1004B80010103C42020408080008183C3C66FFFF84
:1004C800660000917A00006400937A0000917A0037
:1004D80006FDFCCF8091780090917900843803E084
:1004E800900760F48A3802E0900750F4823C01E0FB
:1004F800900740F4863900E0900730F000E0089556
:1005080003E0089502E0089501E00895DADF00238A
:10051800E9F30F93D6DF0023E9F70F9108950F93BE
:100528001F9302E31AE025D01F910F9108950F93AE
:100538001F9304E610E51DD01F910F9108950F93A6
:100548001F9304E61CE315D004E1F3DD0DE410E588
:1005580010D004E1EEDD02E318E70BD01F910F91F4
:1005680008950F931F930AEF18E703D01F910F9177
:1005780008950F931F934F935F93402F512F5C9AC9
:10058800042F0AD05C98042F07D05A95C1F75F91C1
:100598004F911F910F9108951F931AE11A95F1F742
:1005A8000A95D9F71F91089559985A985B98089514
:1005B8000F93EF93FF93F8DF053290F4E0EFF5E047
:1005C800E00F0027F01F0491003029F0013029F0D6
:1005D800023029F005C0599A03C05A9A01C05B9AA3
:1005E800FF91EF910F9108950001020102010201AC
:1005F80002010202010201020102010102010201DB
:1006080002010201020201020102010201000F932C
:100618001F93EF93FF934F93E0E0F1E044E003E092
:10062800019308EE01930EE010E011930A95E9F7A3
:100638004A95A9F74F91FF91EF911F910F91089556
:100648000F931F938F93E0E0F1E0052F0A9531F0A7
:1006580080E11127E80FF11F0A95E1F78F911F91AB
:100668000F910895EF93FF93EBDF91918081FF91B4
:10067800EF910895EF93FF93E3DF91938083FF91C8
:10068800EF910895EF93FF93DBDF0281FF91EF91E4
:100698000895EF93FF93D4DF0283FF91EF910895BC
:1006A800EF93FF93CDDF0381148195818681FF91BC
:1006B800EF910895EF93FF93C3DF0383148395832A
:1006C8008683FF91EF9108950F931091840015325E
:1006D80010F01552FCCF0F9108951FD017DF0F931C
:1006E8000F91013081F4152F139500915201039554
:1006F800101708F011E0512F50934001052F58DFD3
:100708000EDF0BD0EBCF023011F447E00895033031
:1007180029F70DDF41E051E008950F931F938F9360
:100728009F93EF93FF93EAEAF4E0A6DE59DD00E039
:1007380010E05BDD00E533DD052F005D30DD80DF97
:10074800028100FD01C006C008E229DD00E527DDC1
:1007580009E225DDE8E9F8E052DD84DF56DD01E055
:1007680010E043DDE0EAF8E04ADDFF91EF919F9168
:100778008F911F910F91089524D0C8DE0F930F9188
:10078800013069F46FDF8C3A16E2910728F414E619
:10079800810F10E0911F6EDFC2DE13D0EECF023062
:1007A80059F460DF803010E09107B1F314E6811B43
:1007B80010E0910B5FDFF0CF0330F9F6B8DE40E0D0
:1007C80008950F931F938F939F93EF93FF93E2EBFB
:1007D800F4E052DE05DD00E010E007DD00E5DFDCD7
:1007E800052F005DDCDCE6EBF8E009DD3BDF0DDD25
:1007F80001E010E0FADCE2ECF8E001DDFF91EF91B6
:100808009F918F911F910F91089521D07FDE0F93B3
:100818000F91013049F4109152011395153008F0E9
:1008280011E0109352010BC0023061F41091520193
:100838001A95112309F414E01093520100C06FDED9
:1008480006D0E4CF033011F772DE40E008950F932D
:100858001F938F939F93EF93FF93E2ECF4E00CDEEA
:10086800BFDC00E010E0C1DCE6EDF8E0C8DC01E048
:1008780010E0BBDC809152019927C7DCE6EEF8E076
:10088800BEDCFF91EF919F918F911F910F91089579
:100898002042616C3A200000413A4D756461722033
:1008A800423A4372656420533A47697261002053A3
:1008B80065742042616C3A200000413A2B31303097
:1008C80020423A2D31303020533A4F4B00005174BA
:1008D80064204A6F6761646F7265733A0000202074
:1008E80020202028412F422F53290000C6D00EDE99
:1008F8000F93A6DE028100FDB7C00F91603029F08A
:10090800162F1F771130D9F04AC0013041F498DE14
:100918001481112309F41BE21A9514835FC0023075
:1009280041F48EDE148113951B3208F010E0148315
:1009380055C0033019F4FBDD61E050C0D8CF013059
:10094800C1F490DE282F392F7BDE958186818217AE
:10095800930768F414E6810F10E0911F28173907F0
:1009680010F4822F932F6CDE9583868337C0F9DDD0
:10097800BECF023071F464DE95818681182F192B61
:10098800B1F314E6811B10E0910B5ADE9583868340
:1009980025C0033019F4CBDD62E020C0A8CF0130B8
:1009A800A9F0023099F00330C1F467FD13C0BFDD30
:1009B80047DE048104D144DE038314833581268114
:1009C80051DE821B930B56DE60E00BC0A8DD10E8F9
:1009D800612704C0ACDD60E001C089CFA0DD4DD047
:1009E80086CF5395009152010395501710F445D0C6
:1009F8007ECF1DD00023C1F4F3DB00E010E0F5DB6F
:100A0800E4E4FCE0FCDB01E010E0EFDBE6E5FCE021
:100A1800F6DBA7DD00E10F930AEF8BDB0F910A9558
:100A2800D1F751E040E0089551E044E008951F9364
:100A38004F935F93EF93FF9351E000915201051795
:100A480060F05F93552FFCDD5F9105811681012BC6
:100A580011F45395F2CF01E001C000E0FF91EF914E
:100A68005F914F911F9108950F91033011F079DD37
:100A78003ECF5DDDB6CF089508950F931F938F93F2
:100A88009F93EF93FF93ACDBEAEBF4E0F5DCD8DD62
:100A9800028100FD75C0062F0F77023009F448C0A7
:100AA80000E010E0A2DB00E57ADB052F005D77DBD4
:100AB8000AE375DB00E273DBC3DD0481063060F412
:100AC800E8EFFBE0E00FE00F1127F11F059114910B
:100AD800E02FF12F94DB08C0EAE2FCE090DBB0DD08
:100AE80084818650992791DB062F0F77002321F404
:100AF80000E255DB0CE353DB01E010E076DBE8EDC8
:100B0800FBE07DDB9DDD958186817FDB062F0F77FE
:100B1800013021F400E243DB0CE341DBEEEDFBE0C6
:100B28006EDBFF91EF919F918F911F910F91089527
:100B380000E010E05ADB00E532DB052F005D2FDB1B
:100B4800E0E3FCE05CDB67FD04C0E8E3FCE057DBC6
:100B580003C0ECE3FCE053DB01E010E046DBE8ED2A
:100B6800FBE04DDB6DDD958186814FDBEEEDFBE033
:100B780046DBFF91EF919F918F911F910F910895FF
:100B880000E010E032DB00E50ADB052F005D07DB43
:100B9800E8EEFBE034DB01E010E027DBE8EDFBE00A
:100BA8002EDB4EDD9581868130DBE2EFFBE027DB33
:100BB800FF91EF919F918F911F910F9108950630AA
:100BC80018F4102F01E00895102F165000E0089532
:100BD80041706F733A002028412F422F532900009B
:100BE8003A2050524953414F000020285329000011
:100BF800040C0E0C140C180C1E0C240C5645524DEB
:100C0800454C484F0000505245544F005041520047
:100C1800494D50415200424149584F00414C544FB0
:100C280000004E554D3A200020436F6E663A200072
:100C380053494D00564F4C54415200004572726F53
:100C48003A2053656D2041706F7374610000566FD0
:100C58006C746120702F204D656E752E2E2E00004D
:100C6800BFDA00E010E0C1DAE2E1F0E1C8DA97D0DB
:100C780045E008956F937F938F939F93EF93FF932E
:100C880051E0DEDC728163814481358126817F9366
:100C98006F934F933F932F930DD12F913F917F9156
:100CA8006F914F919DDA00E010E09FDA00E577DA66
:100CB800052F005D74DA022F032B21F4E8E6F0E13A
:100CC8009EDA3FC040FD2CC0BBDC028100FD24C081
:100CD80040914001062F172F52D10023B1F0E0E5D3
:100CE800F0E18DDA613069F0822F932F662777273C
:100CF80003E2680F791F0A95E1F7862F972F85DAA7
:100D080020C0822F932F81DA1CC0ECE5F0E177DA5E
:100D1800822F932F7ADA15C0E0E4F0E170DA11C07F
:100D280040914001062F172F2AD1002339F0E2E223
:100D3800F0E165DA822F932F68DA03C0E0E3F0E18F
:100D48005EDA01E010E051DAE4E7F0E158DA8ADC33
:100D58005CDA0AEFEED90AEFECD90AEFEAD90AEF22
:100D6800E8D90AEFE6D90AEFE4D90AEFE2D90AEF9F
:100D7800E0D90AEFDED90AEFDCD953950091520188
:100D88000395501708F001C07CCF51E040E0FF9177
:100D9800EF919F918F917F916F91089508954F934F
:100DA8005F936F937F938F939F93EF93FF938CDC65
:100DB800612F7AE4760F6F9350E07F935F93E6E9B3
:100DC800FEE0E50F0027F01F849180934001082F73
:100DD800EFDB652F2AD000E8142F09DBA0DB5F9139
:100DE8007F91072F3ED0A5D95395553208F050E092
:100DF8007A9519F76F91E6E9FEE0E60F0027F01FF4
:100E080084918093400111D04093490100E8142F48
:100E1800EEDA082FCDDB182FFF91EF919F918F917C
:100E28007F916F915F914F9108950F938F939F9347
:100E38008827992704E1860F4427941F0A95D9F734
:100E48004427853200E0900720F085529040439572
:100E5800F8CF4E5F443108F044519F918F910F9124
:100E68000895083250F40E3150F4043150F40A3029
:100E780050F4053050F40AEF08950AE0089504E1AB
:100E8800089508E2089500E5089506E90895002008
:100E98000F13041502191122061B0D240B1E081727
:100EA8000A0518102101140E1F0916121D071C0C23
:100EB80023031A000F931F934F935F936F937F93AE
:100EC8008F939F93EF93FF93BBDB028100FD39C0A3
:100ED8004091400195818681082F092B09F444C06F
:100EE800442361F40381013021F40281016002830B
:100EF8003BC01481112309F034C00AC00381148156
:100F08003ED0002309F42DC00381013009F40EC03E
:100F1800958186816627772704E2680F791F0A95ED
:100F2800E1F7A0DB860F971FA5DB1BC095818681A3
:100F3800880F991F682F792F95DB860F971F9ADBEB
:100F480010C003811481758166814091400117D0DA
:100F5800002321F087DB860F971F8CDB02810E7F31
:100F6800028300E005830683FF91EF919F918F91A3
:100F78007F916F915F914F911F910F9108951F93EA
:100F88005F936F93003019F4411759F12CC010305A
:100F980029F4542F2DD0513021F125C0113029F4D6
:100FA800542F26D05230E9F01EC0123031F44423B9
:100FB800D1F0542F5170A9F016C0133031F44423E6
:100FC80091F0542F517069F40EC0143029F4442361
:100FD80051F0433130F007C0153029F4433108F49B
:100FE80002C001E001C000E06F915F911F91089578
:100FF800EF93FF930F93E0EFF5E0E50F0027F01F65
:1010080054910F91FF91EF910895476972616E6451
:101018006F20726F6C6574612E00204C49424552F6
:1010280041444F21202B0000205045524445552073
:1010380050524953414F00002056414920502F201B
:1010480050524953414F21002047414E484F5521A6
:10105800202B00002050455244455521202D0000EA
:10106800204E414F204A4F474F5500004E6F766F34
:081078002042616C3A200000E7
:00000001FF
