:020000020000FC
:0200000033C00B
:0200380055C1B0
:100068000FEF0DBF08E00EBF0FE304B90EEE0AB99B
:100078000EE307B92C9A2D9AB2D0C7D04ED2A6D388
:1000880002E004BD04E005BD0CE707BD02E00093F3
:100098006E0000E400937C0007E800937A0001E01A
:1000A8000093810004E00093520149E051E060E0D0
:1000B80000E0009353010093570100935801009307
:1000C80055010093560107E00093540100E00093A6
:1000D800400101E00093400100E00093490100E87D
:1000E80010E04CD201E05DD37894403011F4D4D3C1
:1000F800FCCF413011F443D5F8CF423011F404D687
:10010800F4CF433011F401D6F0CF443011F4F5D6D2
:10011800ECCF453011F4FBD6E8CF463011F48BD73D
:10012800E4CF473011F40BD4E0CF483011F450D469
:10013800DCCF4930D1F68FD4D8CF1F9314E11A956C
:10014800F1F71F9108950F931F9300E11AEF1A9585
:10015800F1F70A95D9F71F910F910895002319F027
:10016800F2DF0A95E9F708953C98E7DF3D98E5DF67
:100178003C9AE3DF3D9AE1DF08953C9ADEDF3D9843
:10018800DCDF3C98DADF08950F9318E0000F10F0D9
:100198003C9A01C03C98D1DF3D98CFDF3D9A1A9533
:1001A800A9F73C98CADF3D98C8DF3D9AC6DF0F9192
:1001B8000895DADF1CE70F93012FE6DF00E8E4DF9C
:1001C8000F91E2DFDADF0895CFDF1CE70F93012FED
:1001D800DBDF00E4D9DF0F91D7DFCFDF08953C984C
:1001E8003D984498459804E1B9DF08E3E2DF05E06B
:1001F800B5DF08E3DEDF01E0B1DF08E3DADF0CE0BA
:10020800D8DF06E0D6DF01D0089501E0D2DF02E0B2
:10021800A5DF08950F93002311F000EC01C000E85A
:10022800010FC7DF0F9108950591002311F0CCDF6E
:10023800FBCF08950F931F934F935F936F937F9313
:10024800682F792F40E080E197E26817790720F05E
:10025800681B790B4395F9CF442329F0405D042F9F
:10026800B3DF51E001C050E040E088EE93E068174A
:10027800790720F0681B790B4395F9CF442311F4D3
:10028800552321F0405D042F9FDF51E040E06436A4
:1002980000E0700720F0645670404395F8CF44237F
:1002A80011F4552321F0405D042F8EDF51E040E02A
:1002B8006A3018F06A504395FBCF442311F4552354
:1002C80019F0405D042F80DF605D062F7DDF7F9190
:1002D8006F915F914F911F910F9108950F930FB7F1
:1002E8000F931F937F938F939F93EF93FF934830C0
:1002F80019F0493009F09DC000915301039507702A
:1003080000935301772710915401011708F001C099
:10031800746010915501011708F001C072601091C6
:100328005601011708F001C0786000C0009157011C
:100338000395023308F444C000E00093570110917C
:1003480040011395183008F010E010934001009117
:100358005801003099F0013011F110915501112325
:1003680049F01A9510935501109154011395109363
:10037800540128C000E00093580124C01091540192
:10038800112349F01A9510935401109156011395B1
:100398001093560117C001E00093580113C0109143
:1003A8005601112349F01A951093560110915501E1
:1003B80013951093550106C002E00093580102C03E
:1003C800009357010091400115B114FF19C02D9AEF
:1003D8001127E0EDF4E0E00FF11F8491E8EDF4E07F
:1003E800E00FF11F9491807E7E700BB10171802B1C
:1003F800872B8BB905B1007F092B05B92C9850C004
:100408002C9A1127E0EEF4E0E00FF11F8491E8EE5A
:10041800F4E0E00FF11F9491807E7E700BB10171C2
:10042800802B872B8BB905B1007F092B05B92D9837
:1004380037C00091400110E00A3018F00A501395B7
:10044800FBCF75B174FF17C02D9A012F1127ECEB64
:10045800F4E0E00FF11F8491E6ECF4E0E00FF11F07
:1004680094910BB10F71082B0BB905B1007F092BC3
:1004780005B92C9815C02C9A1127ECEBF4E0E00F85
:10048800F11F8491E6ECF4E0E00FF11F94910BB1B9
:100498000F71082B0BB905B1007F092B05B92D98F1
:1004A800FF91EF919F918F917F911F910F910FBFB6
:1004B8000F911895E0C060E0C0A0A0E0E0E0070060
:1004C8000B090C0D0F000F0D2000000000000000AC
:1004D800000000000001020400204080000000002D
:1004E80000000000010000000F931F934F935F93DB
:1004F8004398402F08D0412F06D0439A5F914F91DF
:100508001F910F91089558E0419A47FF4198429AE8
:10051800440F42985A95C1F70895399A3A9A3B9AE6
:10052800439A0CE011E0E0DF0FE010E0DDDF09E0C6
:1005380010E0DADF0BE017E0D7DF0AE013E0D4DFE2
:100548000ED008950F931F9301E0EAE4F1E01191B2
:10055800CBDF03950930D9F71F910F9108950F93B9
:10056800EF93FF93EAE4F1E018E000E001931A95B5
:10057800E9F7E8DFFF91EF910F9108950F931F932B
:100588004F935F93EF93FF93402F512FEAE4F1E0ED
:1005980018E000E001931A95E9F7403829F408E1DA
:1005A80000934D0100934E015F3F89F0550F1127CD
:1005B800E6EEF5E0E50FF11F059114910A95EAE4DE
:1005C800F1E0E00F4427F41F4081412B4083BADF5C
:1005D800FF91EF915F914F911F910F910895024004
:1005E80001200110010801040202030104010501B0
:1005F80006010702080408080810082007400680BA
:100608000580048003800F934F93AF93BF93EF93BC
:10061800FF93AAE4B1E048E005910D934A95E1F70C
:1006280091DFFF91EF91BF91AF914F910F91089595
:10063800183C3C183C7E7E00103C5038143C10108E
:100648003C42020408080008183C3C66FFFF6600AC
:1006580000917A00006400937A0000917A0006FD08
:10066800FCCF8091780090917900843803E090075E
:1006780060F48A3802E0900750F4823C01E0900769
:1006880040F4863900E0900730F000E0089503E078
:10069800089502E0089501E00895DADF0023E9F300
:1006A8000F93D6DF0023E9F70F9108950F931F9357
:1006B80002E31AE025D01F910F9108950F931F931D
:1006C80004E610E51DD01F910F9108950F931F9315
:1006D80004E61CE315D004E141DD0DE410E510D07B
:1006E80004E13CDD02E318E70BD01F910F91089558
:1006F8000F931F930AEF18E703D01F910F910895E6
:100708000F931F932F933F93549A202F312F5C9A66
:10071800022F0CD05C98022F09D03A95C1F7549853
:100728005C983F912F911F910F9108951F931AE1A3
:100738001A95F1F70A95D9F71F91089559985A987B
:100748005B9808950F93EF93FF93F8DF053290F4C9
:10075800E4E8F7E0E00F0027F01F0491003029F0EB
:10076800013029F0023029F005C0599A03C05A9A7D
:1007780001C05B9AFF91EF910F910895000102016A
:100788000201020102010202010201020102010149
:100798000201020102010201020201020102010238
:1007A80001000F93CBDF013039F0023039F003300C
:1007B80039F0043039F008C05A9A06C05B9A04C070
:1007C800599A02C05A9A599A0F9108950F931F93F4
:1007D800EF93FF934F93E0E0F1E044E003E00193EF
:1007E80008EE01930EE010E011930A95E9F74A9597
:1007F800A9F74F91FF91EF911F910F9108950F93D2
:100808001F938F93E0E0F1E0052F0A9531F080E126
:100818001127E80FF11F0A95E1F78F911F910F91AA
:100828000895EF93FF93EBDF91918081FF91EF9112
:100838000895EF93FF93E3DF91938083FF91EF9106
:100848000895EF93FF93DBDF0281FF91EF91089505
:10085800EF93FF93D4DF0283FF91EF910895EF9315
:10086800FF93CDDF0381148195818681FF91EF91FC
:100878000895EF93FF93C3DF0383148395838683DF
:10088800FF91EF9108950F9310918400153210F0A5
:100898001552FCCF0F9108951FD0FFDE0F930F91D3
:1008A800013081F4152F139500915201039510170B
:1008B80008F011E0512F50934001052F72DFF6DE4A
:1008C8000BD0EBCF023011F447E00895033029F73D
:1008D800F5DE41E051E008950F931F938F939F93A6
:1008E800EF93FF9350934001052F5BDFE8E3F6E0B9
:1008F8008ADE8BDC00E010E08DDC00E565DC052F8E
:10090800005D62DC7CDF028100FD01C006C008E2F8
:100918005BDC00E559DC09E257DCEAE1FBE084DC5A
:1009280080DF88DC01E010E075DCE2E2FBE07CDCE3
:10093800FF91EF919F918F911F910F91089524D06E
:10094800ACDE0F930F91013069F46BDF8C3A16E23D
:10095800910728F414E6810F10E0911F6ADFA6DEE4
:1009680013D0EECF023059F45CDF803010E09107ED
:10097800B1F314E6811B10E0910B5BDFF0CF03307D
:10098800F9F69CDE40E008950F931F938F939F9391
:10099800EF93FF93E0E4F6E036DE37DC00E010E0AA
:1009A80039DC00E511DC052F005D0EDCE8E3FBE037
:1009B8003BDC37DF3FDC01E010E02CDCE4E4FBE06B
:1009C80033DCFF91EF919F918F911F910F910895C3
:1009D80021D063DE0F930F91013049F41091520139
:1009E8001395153008F011E0109352010BC0023036
:1009F80061F4109152011A95112309F414E010932F
:100A0800520100C053DE06D0E4CF033011F756DEA2
:100A180040E008950F931F938F939F93EF93FF9355
:100A2800E0E5F6E0F0DDF1DB00E010E0F3DBE8E51F
:100A3800FBE0FADB01E010E0EDDB80915201992741
:100A4800F9DBE8E6FBE0F0DBFF91EF919F918F91F6
:100A58001F910F9108952F933F936F937F9339D0F0
:100A680020E011DF312F385D122F00E887DD08E222
:100A780044D0002321F52395243108F020E03A954D
:100A880099F734E168E2122F00E878DD062F35D0B7
:100A98000023A9F42395243108F020E0625F3A95F9
:100AA80091F7215008F423E1122F00E867DD74E67E
:100AB8000AE023D0002319F47A95D1F7D2CFC8DD04
:100AC8000023E9F7FBDD48E07F916F913F912F917B
:100AD80008950F931F938F939F93EF93FF9395DB45
:100AE80000E010E097DBE6E7FBE09EDBFF91EF918B
:100AF8009F918F911F910F9108951F93102FA8DD3B
:100B0800002329F40AE02ADB1A50C8F700E01F91F5
:100B180008952042616C3A200000413A4D756461A5
:100B28007220423A4372656420533A476972610001
:100B3800205365742042616C3A200000413A2B3101
:100B4800303020423A2D31303020533A4F4B00009C
:100B5800517464204A6F6761646F7265733A00006C
:100B6800202020202028412F422F53290000526F97
:100B78006C657461204672616E6365736100C6D0EE
:100B88008CDD0F933CDE028100FDB7C00F91603011
:100B980029F0162F1F771130D9F04AC0013041F4DF
:100BA8002EDE1481112309F41BE21A9514835FC009
:100BB800023041F424DE148113951B3208F010E052
:100BC800148355C0033019F479DD61E050C0D8CFE3
:100BD8000130C1F426DE282F392F11DE9581868158
:100BE8008217930768F414E6810F10E0911F281705
:100BF800390710F4822F932F02DE9583868337C03E
:100C080077DDBECF023071F4FADD95818681182F29
:100C1800192BB1F314E6811B10E0910BF0DD9583DD
:100C2800868325C0033019F449DD62E020C0A8CFCF
:100C38000130A9F0023099F00330C1F467FD13C008
:100C48003DDDDDDD048108D1DADD038314833581E0
:100C58002681E7DD821B930BECDD60E00BC026DD0F
:100C680010E8612704C02ADD60E001C089CF1EDDDD
:100C78004DD086CF5395009152010395501710F42B
:100C880045D07ECF1DD00023C1F4BFDA00E010E0CC
:100C9800C1DAEEEDFEE0C8DA01E010E0BBDAE0EF21
:100CA800FEE0C2DA25DD00E10F930AEF57DA0F9173
:100CB8000A95D1F751E040E0089551E044E00895E5
:100CC8001F934F935F93EF93FF9351E0009152016D
:100CD800051760F05F93552F92DD5F9105811681AE
:100CE800012B11F45395F2CF01E001C000E0FF9110
:100CF800EF915F914F911F9108950F91033011F07B
:100D0800F7DC3ECFDBDCB6CF089508950F931F9331
:100D18008F939F93EF93FF9350934001052F41DDED
:100D280074DAE8E4F6E06FDC6ADD028100FD75C084
:100D3800062F0F77023009F448C000E010E06ADAA5
:100D480000E542DA052F005D3FDA0AE33DDA00E20A
:100D58003BDA55DD0481063060F4E2E9FEE0E00F9D
:100D6800E00F1127F11F05911491E02FF12F5CDAA4
:100D780008C0E4ECFEE058DA42DD84818650992709
:100D880059DA062F0F77002321F400E21DDA0CE36D
:100D98001BDA01E010E03EDAE2E7FEE045DA2FDD9B
:100DA8009581868147DA062F0F77013021F400E21A
:100DB8000BDA0CE309DAE8E7FEE036DAFF91EF91A7
:100DC8009F918F911F910F91089500E010E022DA12
:100DD80000E5FAD9052F005DF7D9EAECFEE024DA40
:100DE80067FD04C0E2EDFEE01FDA03C0E6EDFEE0B9
:100DF8001BDA01E010E00EDAE2E7FEE015DAFFDCCC
:100E08009581868117DAE8E7FEE00EDAFF91EF9127
:100E18009F918F911F910F91089500E010E0FAD9EA
:100E280000E5D2D9052F005DCFD9E2E8FEE0FCD974
:100E380001E010E0EFD9E2E7FEE0F6D9E0DC9581C9
:100E48008681F8D9ECE8FEE0EFD9FF91EF919F9108
:100E58008F911F910F910895063018F4102F01E01B
:100E68000895102F165000E0089541706F733A00EE
:100E78002028412F422F532900003A20505249532D
:100E8800414F00002028532900009E0EA80EAE0EE8
:100E9800B20EB80EBE0E5645524D454C484F000096
:100EA800415A554C000050415200494D50415200A2
:100EB800424149584F00414C544F00004E554D3A5D
:100EC800200020436F6E663A200053494D00564F6C
:100ED8004C54415200004572726F3A2053656D20A0
:100EE80041706F7374610000566F6C746120702FCD
:100EF800204D656E752E2E2E000087D900E010E07B
:100F080089D9ECEAF2E190D997D045E008956F933A
:100F18007F938F939F93EF93FF9351E070DC7281DF
:100F280063814481358126817F936F934F933F93EB
:100F38002F930DD12F913F917F916F914F9165D94B
:100F480000E010E067D900E53FD9052F005D3CD9E6
:100F5800022F032B21F4E2E0F3E166D93FC040FD04
:100F68002CC04DDC028100FD24C040914001062FB9
:100F7800172F52D10023B1F0EAEEF2E155D96130D2
:100F880069F0822F932F6627772703E2680F791F6E
:100F98000A95E1F7862F972F4DD920C0822F932FDE
:100FA80049D91CC0E6EFF2E13FD9822F932F42D9ED
:100FB80015C0EAEDF2E138D911C040914001062F81
:100FC800172F2AD1002339F0ECEBF2E12DD9822F2B
:100FD800932F30D903C0EAECF2E126D901E010E002
:100FE80019D9EEE0F3E120D91CDC24D90AEFB6D8F0
:100FF8000AEFB4D80AEFB2D80AEFB0D80AEFAED8E1
:101008000AEFACD80AEFAAD80AEFA8D80AEFA6D8F0
:101018000AEFA4D85395009152010395501708F090
:1010280001C07CCF51E040E0FF91EF919F918F91FB
:101038007F916F91089508954F935F936F937F9376
:101048008F939F93EF93FF931EDC612F7AE4760FC3
:101058006F9350E07F935F93E0E3F1E1E50F0027A2
:10106800F01F849180934001082F6CDB652F2AD0F4
:1010780000E8142F83DA1ADB5F917F91072F3ED0A7
:101088006DD85395553208F050E07A9519F76F915D
:10109800E0E3F1E1E60F0027F01F8491809340011F
:1010A80011D04093490100E8142F68DA082F4ADB71
:1010B800182FFF91EF919F918F917F916F915F9181
:1010C8004F9108950F938F939F938827992704E151
:1010D800860F4427941F0A95D9F74427853200E0E4
:1010E800900720F0855290404395F8CF4E5F4431E9
:1010F80008F044519F918F910F910895083250F450
:101108000E3150F4043150F40A3050F4053050F4E4
:101118000AEF08950AE0089504E1089508E20895A1
:1011280000E5089506E9089500200F130415021933
:101138001122061B0D240B1E08170A051810210181
:10114800140E1F0916121D071C0C23031A000F93F7
:101158001F934F935F936F937F938F939F93EF9317
:10116800FF934DDB028100FD39C04091400195811C
:101178008681082F092B09F444C0442361F40381B4
:10118800013021F40281016002833BC014811123E4
:1011980009F034C00AC0038114813ED0002309F449
:1011A8002DC00381013009F40EC095818681662720
:1011B800772704E2680F791F0A95E1F732DB860F7B
:1011C800971F37DB1BC095818681880F991F682F71
:1011D800792F27DB860F971F2CDB10C00381148122
:1011E800758166814091400117D0002321F019DBF9
:1011F800860F971F1EDB02810E7F028300E00583A6
:101208000683FF91EF919F918F917F916F915F91ED
:101218004F911F910F9108951F935F936F93003023
:1012280019F4411759F12CC0103029F4542F2DD03E
:10123800513021F125C0113029F4542F26D05230D5
:10124800E9F01EC0123031F44423D1F0542F51700C
:10125800A9F016C0133031F4442391F0542F517083
:1012680069F40EC0143029F4442351F0433130F0AE
:1012780007C0153029F4433108F402C001E001C069
:1012880000E06F915F911F910895EF93FF930F9383
:10129800E4E8F7E0E50F0027F01F54910F91FF9164
:1012A800EF910895476972616E646F20726F6C6583
:1012B80074612E00204C4942455241444F21202B55
:1012C8000000205045524445552050524953414F43
:1012D80000002056414920502F2050524953414F79
:1012E80021002047414E484F5521202B0000205017
:1012F800455244455521202D0000204E414F204A9B
:101308004F474F5500004E6F766F2042616C3A2070
:021318000000D3
:00000001FF
