:020000020000FC
:0200000033C00B
:0200380062C1A3
:100068000FEF0DBF08E00EBF0FE304B90EEE0AB99B
:100078000EE307B92C9A2D9ABFD0D4D05BD22ED4D8
:1000880002E004BD04E005BD0CE707BD02E00093F3
:100098006E0000E400937C0007E800937A0001E01A
:1000A8000093810004E00093520149E051E060E0D0
:1000B80000E00093590100E00093530100935701B9
:1000C80000935801009355010093560107E00093EF
:1000D800540100E00093400101E00093400100E07A
:1000E8000093490100E810E056D201E0E2D3789489
:1000F800403019F40E94D804FBCF413019F40E9413
:100108002206F6CF423019F40E940A07F1CF433095
:1001180019F40E940B07ECCF443019F40E942E0802
:10012800E7CF453019F40E943C08E2CF463019F475
:100138000E94E308DDCF473019F40E942B05D8CF81
:10014800483019F40E947405D3CF493089F60E94CB
:10015800B705CECF1F9314E11A95F1F71F910895B3
:100168000F931F9300E11AEF1A95F1F70A95D9F743
:100178001F910F910895002319F0F2DF0A95E9F70E
:1001880008953C98E7DF3D98E5DF3C9AE3DF3D9A28
:10019800E1DF08953C9ADEDF3D98DCDF3C98DADF4A
:1001A80008950F9318E0000F10F03C9A01C03C9896
:1001B800D1DF3D98CFDF3D9A1A95A9F73C98CADF61
:1001C8003D98C8DF3D9AC6DF0F910895DADF1CE736
:1001D8000F93012FE6DF00E8E4DF0F91E2DFDADFBB
:1001E8000895CFDF1CE70F93012FDBDF00E4D9DF91
:1001F8000F91D7DFCFDF08953C983D9844984598F4
:1002080004E1B9DF08E3E2DF05E0B5DF08E3DEDF9C
:1002180001E0B1DF08E3DADF0CE0D8DF06E0D6DF83
:1002280001D0089501E0D2DF02E0A5DF08950F9321
:10023800002311F000EC01C000E8010FC7DF0F91A7
:1002480008950591002311F0CCDFFBCF08950F939B
:100258001F934F935F936F937F93682F792F40E09D
:1002680080E197E26817790720F0681B790B4395BE
:10027800F9CF442329F0405D042FB3DF51E001C0DA
:1002880050E040E088EE93E06817790720F0681B9B
:10029800790B4395F9CF442311F4552321F0405DA0
:1002A800042F9FDF51E040E0643600E0700720F043
:1002B800645670404395F8CF442311F4552321F038
:1002C800405D042F8EDF51E040E06A3018F06A503C
:1002D8004395FBCF442311F4552319F0405D042FB7
:1002E80080DF605D062F7DDF7F916F915F914F9179
:1002F8001F910F9108950F930FB70F931F937F933B
:100308008F939F93EF93FF93483019F0493009F08A
:100318009DC00091530103950770009353017727FF
:1003280010915401011708F001C074601091550133
:10033800011708F001C0726010915601011708F00A
:1003480001C0786000C0009157010395023308F49A
:1003580044C000E0009357011091400113951830F4
:1003680008F010E01093400100915801003099F016
:10037800013011F110915501112349F01A9510938C
:1003880055011091540113951093540128C000E0B1
:100398000093580124C010915401112349F01A9573
:1003A800109354011091560113951093560117C0DC
:1003B80001E00093580113C010915601112349F030
:1003C8001A951093560110915501139510935501E4
:1003D80006C002E00093580102C000935701009143
:1003E800400115B114FF19C02D9A1127EAEEF4E067
:1003F800E00FF11F8491E2EFF4E0E00FF11F949118
:10040800807E7E700BB10171802B872B8BB905B173
:10041800007F092B05B92C9850C02C9A1127EAEFB8
:10042800F4E0E00FF11F8491E2E0F5E0E00FF11F46
:100438009491807E7E700BB10171802B872B8BB9D4
:1004480005B1007F092B05B92D9837C000914001EF
:1004580010E00A3018F00A501395FBCF75B174FFFD
:1004680017C02D9A012F1127E6EDF4E0E00FF11FD8
:100478008491E0EEF4E0E00FF11F94910BB10F715D
:10048800082B0BB905B1007F092B05B92C9815C0AD
:100498002C9A1127E6EDF4E0E00FF11F8491E0EECD
:1004A800F4E0E00FF11F94910BB10F71082B0BB919
:1004B80005B1007F092B05B92D98FF91EF919F9108
:1004C8008F917F911F910F910FBF0F911895E0C0E9
:1004D80060E0C0A0A0E0E0E007000B090C0D0F00F1
:1004E8000F0D2000000000000000000000000001C7
:1004F800020400204080000000000000000001000D
:1005080000000F931F934F935F934398402F08D099
:10051800412F06D0439A5F914F911F910F910895F3
:1005280058E0419A47FF4198429A440F42985A9599
:10053800C1F70895399A3A9A3B9A439A0CE011E028
:10054800E0DF0FE010E0DDDF09E010E0DADF0BE0CC
:1005580017E0D7DF0AE013E0D4DF0ED008950F9339
:100568001F9301E0EAE4F1E01191CBDF0395093034
:10057800D9F71F910F9108950F93EF93FF93EAE432
:10058800F1E018E000E001931A95E9F7E8DFFF9140
:10059800EF910F9108950F931F934F935F93EF93EC
:1005A800FF93402F512FEAE4F1E018E000E00193B7
:1005B8001A95E9F7403829F408E100934D010093B2
:1005C8004E015F3F89F0550F1127E0E0F6E0E50F97
:1005D800F11F059114910A95EAE4F1E0E00F442730
:1005E800F41F4081412B4083BADFFF91EF915F9167
:1005F8004F911F910F9108950240012001100108A9
:1006080001040202030104010501060107020804AE
:100618000808081008200740068005800480038029
:100628000F934F93AF93BF93EF93FF93AAE4B1E077
:1006380048E005910D934A95E1F791DFFF91EF911D
:10064800BF91AF914F910F910895183C3C183C7E93
:100658007E00103C5038143C10103C42020408083C
:100668000008183C3C66FFFF660000917A000064B1
:1006780000937A0000917A0006FDFCCF8091780003
:1006880090917900843803E0900760F48A3802E09A
:10069800900750F4823C01E0900740F4863900E06E
:1006A800900730F000E0089503E0089502E008950F
:1006B80001E00895DADF0023E9F30F93D6DF002382
:1006C800E9F70F9108950F931F9302E31AE025D0DD
:1006D8001F910F9108950F931F9304E610E51DD005
:1006E8001F910F9108950F931F9304E61CE315D0F3
:1006F80004E141DD0DE410E510D004E13CDD02E346
:1007080018E70BD01F910F9108950F931F930AEFCD
:1007180018E703D01F910F9108950F931F932F93FC
:100728003F93549A202F312F5C9A022F0CD05C985B
:10073800022F09D03A95C1F754985C983F912F91B0
:100748001F910F9108951F931AE11A95F1F70A95D1
:10075800D9F71F9108951F932F933F93EF93FF931A
:10076800E6EDF7E03EE13F9325913591222339F1FB
:10077800109149011395143108F010E010934901C4
:1007880000E809DF022F132FC8DF3F913F93032FA3
:1007980011270A5010F01395FCCF112379F0012F7F
:1007A8000F9363DF002329F0202F0F913F91022F31
:1007B80008C00AE0E0DC0F910A9591F7D5CF3F9188
:1007C80000E0FF91EF913F912F911F910895CA6228
:1007D800CA62BF68AA75AA75BF68CA62E358FF4EA5
:1007E800FF4EE358CA62CA94E32CE3B0CA62CA62F5
:1007F800BF68AA75AA75BF68CA62E358FF4EFF4E64
:10080800E358CA62E394FF27FF9CE358E358CA629F
:10081800FF4EE358CA31BF34CA62FF4EE358CA31AB
:10082800BF34CA62E358FF4EE358AAEACA62CA62F2
:10083800BF68AA75AA75BF68CA62E358FF4EFF4E23
:10084800E358CA62E394FF27FF9C000059985A981E
:100858005B9808950F93EF93FF93F8DF053290F4B8
:10086800E4E9F8E0E00F0027F01F0491003029F0D8
:10087800013029F0023029F005C0599A03C05A9A6C
:1008880001C05B9AFF91EF910F9108950001020159
:100898000201020102010202010201020102010138
:1008A8000201020102010201020201020102010227
:1008B80001000F93CBDF013039F0023039F00330FB
:1008C80039F0043039F008C05A9A06C05B9A04C05F
:1008D800599A02C05A9A599A0F9108950F931F93E3
:1008E800EF93FF934F93E0E0F1E044E003E00193DE
:1008F80008EE01930EE010E011930A95E9F74A9586
:10090800A9F74F91FF91EF911F910F9108950F93C0
:100918001F938F93E0E0F1E0052F0A9531F080E115
:100928001127E80FF11F0A95E1F78F911F910F9199
:100938000895EF93FF93EBDF91918081FF91EF9101
:100948000895EF93FF93E3DF91938083FF91EF91F5
:100958000895EF93FF93DBDF0281FF91EF910895F4
:10096800EF93FF93D4DF0283FF91EF910895EF9304
:10097800FF93CDDF0381148195818681FF91EF91EB
:100988000895EF93FF93C3DF0383148395838683CE
:10099800FF91EF9108950F9310918400153210F094
:1009A8001552FCCF0F9108951FD084DE0F930F913D
:1009B800013081F4152F13950091520103951017FA
:1009C80008F011E0512F50934001052F72DF7BDEB4
:1009D8000BD0EBCF023011F447E00895033029F72C
:1009E8007ADE41E051E008950F931F938F939F9310
:1009F800EF93FF9350934001052F5BDFE2E5F6E0AC
:100A08000FDE10DC00E010E012DC00E5EADB052F69
:100A1800005DE7DB7CDF028100FD01C006C008E263
:100A2800E0DB00E5DEDB09E2DCDBE8EDFBE009DC2E
:100A380080DF0DDC01E010E0FADBE0EEFBE001DC3A
:100A4800FF91EF919F918F911F910F91089524D05D
:100A580031DE0F930F91013069F46BDF8C3A16E2A7
:100A6800910728F414E6810F10E0911F6ADF2BDE4E
:100A780013D0EECF023059F45CDF803010E09107DC
:100A8800B1F314E6811B10E0910B5BDFF0CF03306C
:100A9800F9F621DE40E008950F931F938F939F93FB
:100AA800EF93FF93EAE5F6E0BBDDBCDB00E010E086
:100AB800BEDB00E596DB052F005D93DBE6EFFBE090
:100AC800C0DB37DFC4DB01E010E0B1DBE2E0FCE0D3
:100AD800B8DBFF91EF919F918F911F910F9108952E
:100AE80021D0E8DD0F930F91013049F410915201A4
:100AF8001395153008F011E0109352010BC0023025
:100B080061F4109152011A95113008F414E0109311
:100B1800520100C0D8DD06D0E4CF033011F7DBDD89
:100B280040E008950F931F938F939F93EF93FF9344
:100B3800EAE6F6E075DD76DB00E010E078DBE6E17A
:100B4800FCE07FDB01E010E072DB80915201992725
:100B58007EDBE6E2FCE075DBFF91EF919F918F91E0
:100B68001F910F9108952F933F936F937F931CD0FC
:100B7800F2DD0023E9F3033069F477DD0023E9F7B8
:100B8800109159011395123008F010E01093590193
:100B9800A2DDEDCF6ADD0023E9F79DDD48E07F9116
:100BA8006F913F912F9108950F931F938F939F9368
:100BB800EF93FF9337DB00E010E039DBE4E3FCE080
:100BC80040DBFF91EF919F918F911F910F910895B5
:100BD8002042616C3A200000413A4D7564617220F0
:100BE800423A4372656420533A4769726100205360
:100BF80065742042616C3A200000413A2B31303054
:100C080020423A2D31303020533A4F4B0000517476
:100C180064204A6F6761646F7265733A0000202030
:100C280020202028412F422F53290000526F6C6545
:100C38007461204672616E63657361000E940C07DF
:100C48000E945E030F930E948B04028100FDD5C0B1
:100C58000F91603029F0162F1F771130F1F054C032
:100C6800013049F40E948B041481112309F41BE21A
:100C78001A95148370C0023049F40E948B041481C1
:100C880013951B3208F010E0148365C0033021F47B
:100C98000E946F0361E05FC0D3CF0130E1F40E948E
:100CA8009D04282F392F0E948B04958186818217F5
:100CB800930770F414E6810F10E0911F2817390785
:100CC80010F4822F932F0E948B049583868343C050
:100CD8000E948903B5CF023081F40E948B0495816C
:100CE8008681182F192BA1F314E6811B10E0910BB4
:100CF8000E948B04958386832EC0033021F40E94C2
:100D08006F0362E028C09CCF0130D9F00230C9F0EF
:100D1800033001F567FD1AC00E946F030E948B041F
:100D280004810E94DD070E948B04038314833581AC
:100D380026810E949D04821B930B0E94A50460E0FB
:100D48000FC00E94670310E8612705C00E946F0367
:100D580060E001C075CF0E9467030E940C0770CF46
:100D68005395009152010395501718F40E940C07EF
:100D780067CF0E94E3060023F9F40E94160100E001
:100D880010E00E941B01E8E3F0E10E94250101E068
:100D980010E00E941B01EAE4F0E10E9425010E9494
:100DA800890300E10F930AEF0E94BF000F910A9593
:100DB800C9F751E040E0089551E044E008951F93D9
:100DC8004F935F93EF93FF9351E000915201051702
:100DD80068F05F93552F0E948B045F9105811681FF
:100DE800012B11F45395F1CF01E001C000E0FF9110
:100DF800EF915F914F911F9108950F91033019F072
:100E08000E9489031DCF0E946F03AACF08950895F9
:100E18000F931F938F939F93EF93FF9350934001EA
:100E2800052F0E945D040E941601E2E6F6E00E948A
:100E380014030E948B04028100FD93C0062F0F77D4
:100E4800023009F45BC000E010E00E941B0100E5DD
:100E58000E94F500052F005D0E94F5000AE30E943C
:100E6800F50000E20E94F5000E948B040481063020
:100E780068F4ECEEFFE0E00FE00F1127F11F059199
:100E88001491E02FF12F0E9425010BC0EEE1F0E153
:100E98000E9425010E948B048481865099270E9414
:100EA8002B01062F0F77002331F400E20E94F50092
:100EB8000CE30E94F50001E010E00E941B01ECEC3D
:100EC800FFE00E9425010E948B04958186810E9483
:100ED8002B01062F0F77013031F400E20E94F50054
:100EE8000CE30E94F500E2EDFFE00E942501FF916E
:100EF800EF919F918F911F910F91089500E010E05D
:100F08000E941B0100E50E94F500052F005D0E946C
:100F1800F500E4E2F0E10E94250167FD05C0ECE27E
:100F2800F0E10E94250104C0E0E3F0E10E94250100
:100F380001E010E00E941B01ECECFFE00E9425019B
:100F48000E948B04958186810E942B01E2EDFFE0CF
:100F58000E942501FF91EF919F918F911F910F9111
:100F6800089500E010E00E941B0100E50E94F500D2
:100F7800052F005D0E94F500ECEDFFE00E942501C1
:100F880001E010E00E941B01ECECFFE00E9425014B
:100F98000E948B04958186810E942B01E6EEFFE07A
:100FA8000E942501FF91EF919F918F911F910F91C1
:100FB8000895063018F4102F01E00895102F1650E8
:100FC80000E0089541706F733A002028412F422FA6
:100FD800532900003A2050524953414F000020281D
:100FE80053290000F80F021008100C1012101810E6
:100FF8005645524D454C484F0000415A554C00004B
:1010080050415200494D50415200424149584F0009
:10101800414C544F00004E554D3A200020436F6E0E
:10102800663A200053494D00564F4C544152000037
:101038004572726F3A2053656D2041706F73746109
:101048000000566F6C746120702F204D656E752EF0
:101058002E2E00000E94160100E010E00E941B01E5
:10106800E6E3F4E10E9425010E94E40845E00895C2
:101078006F937F938F939F93EF93FF9351E00E9419
:101088008B04728163814481358126817F936F93BC
:101098004F933F932F930E9470092F913F917F9117
:1010A8006F914F910E94160100E010E00E941B0111
:1010B80000E50E94F500052F005D0E94F500022F53
:1010C800032B29F4ECE8F4E10E94250153C040FD0C
:1010D80038C00E948B04028100FD2EC0409140015F
:1010E800062F172F0E94D5090023D9F00E947703F5
:1010F800E4E7F4E10E942501613071F0822F932F1B
:101108006627772703E2680F791F0A95E1F7862F8C
:10111800972F0E942B012EC0822F932F0E942B0104
:1011280029C00E948903E0E8F4E10E942501822F8A
:10113800932F0E942B011EC0E4E6F4E10E942501D2
:1011480019C040914001062F172F0E94D50900238E
:1011580059F00E947703E6E4F4E10E942501822F0A
:10116800932F0E942B0106C00E948903E4E5F4E155
:101178000E94250101E010E00E941B01E8E9F4E16A
:101188000E9425010E949D040E942B011F931EE0CE
:101198000AEF0E94BF001A95D9F71F915395009145
:1011A80052010395501708F001C069CF51E040E0A3
:1011B800FF91EF919F918F917F916F91089508957D
:1011C8004F935F936F937F938F939F93EF93FF93C7
:1011D800E2DB612F7AE4760F6F9350E07F935F93A1
:1011E800EAEBF2E1E50F0027F01F849180934001BC
:1011F800082F30DB652F2BD000E8142FCCD963DA09
:101208005F917F91072F3FD00E94BF0053955532C1
:1012180008F050E07A9511F76F91EAEBF2E1E60FEA
:101228000027F01F84918093400111D04093490119
:1012380000E8142FB0D9082F0DDB182FFF91EF917C
:101248009F918F917F916F915F914F9108950F9327
:101258008F939F938827992704E1860F4427941F2B
:101268000A95D9F74427853200E0900720F0855287
:1012780090404395F8CF4E5F443108F044519F9118
:101288008F910F910895083250F40E3150F40431C3
:1012980050F40A3050F4053050F40AEF08950AE08B
:1012A800089504E1089508E2089500E5089506E91F
:1012B800089500200F13041502191122061B0D248E
:1012C8000B1E08170A0518102101140E1F09161203
:1012D8001D071C0C23031A000F931F934F935F9352
:1012E8006F937F938F939F93EF93FF9310DB02810C
:1012F80000FD39C04091400195818681082F092B56
:1013080009F444C0442361F40381013021F40281CB
:10131800016002833BC01481112309F034C00AC064
:10132800038114813ED0002309F42DC003810130CC
:1013380009F40EC0958186816627772704E2680F35
:10134800791F0A95E1F7F5DA860F971FFADA1BC0BD
:1013580095818681880F991F682F792FEADA860F81
:10136800971FEFDA10C0038114817581668140915F
:10137800400117D0002321F0DCDA860F971FE1DA4D
:1013880002810E7F028300E005830683FF91EF91BF
:101398009F918F917F916F915F914F911F910F91C5
:1013A80008951F935F936F93003019F4411759F113
:1013B8002CC0103029F4542F2DD0513021F125C0E4
:1013C800113029F4542F26D05230E9F01EC01230C3
:1013D80031F44423D1F0542F5170A9F016C01330C2
:1013E80031F4442391F0542F517069F40EC0143035
:1013F80029F4442351F0433130F007C0153029F463
:10140800433108F402C001E001C000E06F915F9130
:101418001F910895EF93FF930F93E4E9F8E0E50F28
:101428000027F01F54910F91FF91EF91089547699C
:1014380072616E646F20726F6C6574612E00204C4F
:101448004942455241444F21202B0000205045522B
:101458004445552050524953414F000020564149B8
:1014680020502F2050524953414F21002047414ED0
:10147800484F5521202B0000205045524445552106
:10148800202D0000204E414F204A4F474F55000065
:0C1498004E6F766F2042616C3A2000001D
:00000001FF
