:020000020000FC
:0200000033C00B
:0200380051C1B4
:100068000FEF0DBF08E00EBF0FE304B90EEE0AB99B
:100078000EE307B92C9A2D9AAED0C3D048D2A0D39C
:1000880002E004BD04E005BD0CE707BD02E00093F3
:100098006E0000E400937C0007E800937A0001E01A
:1000A8000093810004E00093520148E051E060E0D1
:1000B80000E0009353010093570100935801009307
:1000C80055010093560107E00093540100E00093A6
:1000D800400101E00093400100E00093490100E87D
:1000E80010E046D201E057D37894403011F4CED3D3
:1000F800FCCF413011F4D7D4F8CF423011F498D561
:10010800F4CF433011F495D5F0CF443011F489D6AB
:10011800ECCF453011F48FD6E8CF463011F41FD715
:10012800E4CF473011F405D4E0CF4830F1F64AD493
:10013800DCCF1F9314E11A95F1F71F9108950F93DF
:100148001F9300E11AEF1A95F1F70A95D9F71F9155
:100158000F910895002319F0F2DF0A95E9F7089541
:100168003C98E7DF3D98E5DF3C9AE3DF3D9AE1DF25
:1001780008953C9ADEDF3D98DCDF3C98DADF08958D
:100188000F9318E0000F10F03C9A01C03C98D1DFA3
:100198003D98CFDF3D9A1A95A9F73C98CADF3D985C
:1001A800C8DF3D9AC6DF0F910895DADF1CE70F9389
:1001B800012FE6DF00E8E4DF0F91E2DFDADF0895E0
:1001C800CFDF1CE70F93012FDBDF00E4D9DF0F91AE
:1001D800D7DFCFDF08953C983D984498459804E1CF
:1001E800B9DF08E3E2DF05E0B5DF08E3DEDF01E0C1
:1001F800B1DF08E3DADF0CE0D8DF06E0D6DF01D0B4
:10020800089501E0D2DF02E0A5DF08950F930023EF
:1002180011F000EC01C000E8010FC7DF0F9108954D
:100228000591002311F0CCDFFBCF08950F931F93A6
:100238004F935F936F937F93682F792F40E080E10E
:1002480097E26817790720F0681B790B4395F9CF77
:10025800442329F0405D042FB3DF51E001C050E092
:1002680040E088EE93E06817790720F0681B790B67
:100278004395F9CF442311F4552321F0405D042F11
:100288009FDF51E040E0643600E0700720F06456DC
:1002980070404395F8CF442311F4552321F0405D75
:1002A800042F8EDF51E040E06A3018F06A50439521
:1002B800FBCF442311F4552319F0405D042F80DF50
:1002C800605D062F7DDF7F916F915F914F911F9148
:1002D8000F9108950F930FB70F931F937F938F93E9
:1002E8009F93EF93FF93483009F09DC0009153010D
:1002F8000395077000935301772710915401011754
:1003080008F001C0746010915501011708F001C090
:10031800726010915601011708F001C0786000C0A2
:10032800009157010395023308F444C000E000939C
:100338005701109140011395183008F010E0109300
:10034800400100915801003099F0013011F11091ED
:100358005501112349F01A95109355011091540134
:1003680013951093540128C000E00093580124C04D
:1003780010915401112349F01A95109354011091CA
:10038800560113951093560117C001E000935801C8
:1003980013C010915601112349F01A951093560174
:1003A8001091550113951093550106C002E0009372
:1003B800580102C0009357010091400115B114FF84
:1003C80019C02D9A1127E4ECF4E0E00FF11F849195
:1003D800ECECF4E0E00FF11F9491807E7E700BB19D
:1003E8000171802B872B8BB905B1007F092B05B9CB
:1003F8002C9850C02C9A1127E4EDF4E0E00FF11F7F
:100408008491ECEDF4E0E00FF11F9491807E7E7012
:100418000BB10171802B872B8BB905B1007F092B9C
:1004280005B92D9837C00091400110E00A3018F046
:100438000A501395FBCF75B174FF17C02D9A012F81
:100448001127E0EBF4E0E00FF11F8491EAEBF4E010
:10045800E00FF11F94910BB10F71082B0BB905B187
:10046800007F092B05B92C9815C02C9A1127E0EBB1
:10047800F4E0E00FF11F8491EAEBF4E0E00FF11FE4
:1004880094910BB10F71082B0BB905B1007F092BA3
:1004980005B92D98FF91EF919F918F917F911F91B1
:1004A8000F910FBF0F911895E0C060E0C0A0A0E0C9
:1004B800E0E007000B090C0D0F000F0D20000000F5
:1004C800000000000000000000010204002040803D
:1004D8000000000000000000010000000F931F93BF
:1004E8004F935F934398402F08D0412F06D0439AEB
:1004F8005F914F911F910F91089558E0419A47FFDE
:100508004198429A440F42985A95C1F70895399AEA
:100518003A9A3B9A439A0CE011E0E0DF0FE010E0D2
:10052800DDDF09E010E0DADF0BE017E0D7DF0AE0F3
:1005380013E0D4DF0ED008950F931F9301E0EAE48F
:10054800F1E01191CBDF03950930D9F71F910F9195
:1005580008950F93EF93FF93EAE4F1E018E000E0C9
:1005680001931A95E9F7E8DFFF91EF910F9108954C
:100578000F931F934F935F93EF93FF93402F512F48
:10058800EAE4F1E018E000E001931A95E9F7403851
:1005980029F408E100934D0100934E015F3F89F073
:1005A800550F1127EAEDF5E0E50FF11F05911491BC
:1005B8000A95EAE4F1E0E00F4427F41F4081412B5B
:1005C8004083BADFFF91EF915F914F911F910F9197
:1005D80008950240012001100108010402020301EC
:1005E800040105010601070208040808081008208C
:1005F800074006800580048003800F934F93AF93D4
:10060800BF93EF93FF93AAE4B1E048E005910D93FF
:100618004A95E1F791DFFF91EF91BF91AF914F912B
:100628000F910895183C3C183C7E7E00103C5038D1
:10063800143C10103C42020408080008183C3C66B0
:10064800FFFF660000917A00006400937A00009131
:100658007A0006FDFCCF809178009091790084386B
:1006680003E0900760F48A3802E0900750F4823C77
:1006780001E0900740F4863900E0900730F000E090
:10068800089503E0089502E0089501E00895DADF8F
:100698000023E9F30F93D6DF0023E9F70F910895BC
:1006A8000F931F9302E31AE025D01F910F9108952D
:1006B8000F931F9304E610E51DD01F910F91089525
:1006C8000F931F9304E61CE315D004E143DD0DE40A
:1006D80010E510D004E13EDD02E318E70BD01F91CE
:1006E8000F9108950F931F930AEF18E703D01F91F6
:1006F8000F9108950F931F932F933F93549A202F90
:10070800312F5C9A022F0CD05C98022F09D03A95B1
:10071800C1F754985C983F912F911F910F910895BC
:100728001F931AE11A95F1F70A95D9F71F910895C1
:1007380059985A985B9808950F93EF93FF93F8DFB1
:10074800053290F4E8E7F7E0E00F0027F01F049186
:10075800003029F0013029F0023029F005C0599AFB
:1007680003C05A9A01C05B9AFF91EF910F910895C7
:10077800000102010201020102010202010201025A
:100788000102010102010201020102010202010249
:100798000102010201000F93CBDF013039F0023072
:1007A80039F0033039F0043039F008C05A9A06C0DD
:1007B8005B9A04C0599A02C05A9A599A0F9108959F
:1007C8000F931F93EF93FF934F93E0E0F1E044E022
:1007D80003E0019308EE01930EE010E011930A95EF
:1007E800E9F74A95A9F74F91FF91EF911F910F9162
:1007F80008950F931F938F93E0E0F1E0052F0A957A
:1008080031F080E11127E80FF11F0A95E1F78F9188
:100818001F910F910895EF93FF93EBDF91918081E2
:10082800FF91EF910895EF93FF93E3DF9193808316
:10083800FF91EF910895EF93FF93DBDF0281FF9122
:10084800EF910895EF93FF93D4DF0283FF91EF9127
:100858000895EF93FF93CDDF0381148195818681FD
:10086800FF91EF910895EF93FF93C3DF0383148300
:1008780095838683FF91EF9108950F9310918400DB
:10088800153210F01552FCCF0F9108951FD0FFDEDE
:100898000F930F91013081F4152F13950091520198
:1008A8000395101708F011E0512F50934001052FC0
:1008B80072DFF6DE0BD0EBCF023011F447E008957B
:1008C800033029F7F5DE41E051E008950F931F93B7
:1008D8008F939F93EF93FF9350934001052F5BDF16
:1008E800ECE2F6E08ADE8DDC00E010E08FDC00E56B
:1008F80067DC052F005D64DC7CDF028100FD01C040
:1009080006C008E25DDC00E55BDC09E259DCE2E5F3
:10091800FAE086DC80DF8ADC01E010E077DCEAE5DB
:10092800FAE07EDCFF91EF919F918F911F910F91DB
:10093800089524D0ACDE0F930F91013069F46BDF7A
:100948008C3A16E2910728F414E6810F10E0911F03
:100958006ADFA6DE13D0EECF023059F45CDF8030B8
:1009680010E09107B1F314E6811B10E0910B5BDFF7
:10097800F0CF0330F9F69CDE40E008950F931F9303
:100988008F939F93EF93FF93E4E3F6E036DE39DC31
:1009980000E010E03BDC00E513DC052F005D10DC17
:1009A800E0E7FAE03DDC37DF41DC01E010E02EDC77
:1009B800ECE7FAE035DCFF91EF919F918F911F9161
:1009C8000F91089521D063DE0F930F91013049F400
:1009D800109152011395153008F011E0109352014F
:1009E8000BC0023061F4109152011A95112309F4D9
:1009F80014E01093520100C053DE06D0E4CF033058
:100A080011F756DE40E008950F931F938F939F933D
:100A1800EF93FF93E4E4F6E0F0DDF3DB00E010E0B1
:100A2800F5DBE0E9FAE0FCDB01E010E0EFDB8091C8
:100A380052019927FBDBE0EAFAE0F2DBFF91EF9144
:100A48009F918F911F910F9108952042616C3A20D8
:100A58000000413A4D7564617220423A4372656400
:100A680020533A4769726100205365742042616CD3
:100A78003A200000413A2B31303020423A2D3130B3
:100A88003020533A4F4B0000517464204A6F67611D
:100A9800646F7265733A0000202020202028412FBF
:100AA800422F53290000C6D0F2DD0F93A2DE028147
:100AB80000FDB7C00F91603029F0162F1F77113055
:100AC800D9F04AC0013041F494DE1481112309F4AD
:100AD8001BE21A9514835FC0023041F48ADE148148
:100AE80013951B3208F010E0148355C0033019F435
:100AF800DFDD61E050C0D8CF0130C1F48CDE282F93
:100B0800392F77DE958186818217930768F414E67A
:100B1800810F10E0911F2817390710F4822F932FA7
:100B280068DE9583868337C0DDDDBECF023071F481
:100B380060DE95818681182F192BB1F314E6811B8D
:100B480010E0910B56DE9583868325C0033019F497
:100B5800AFDD62E020C0A8CF0130A9F0023099F0E3
:100B68000330C1F467FD13C0A3DD43DE048108D15F
:100B780040DE03831483358126814DDE821B930B6F
:100B880052DE60E00BC08CDD10E8612704C090DD08
:100B980060E001C089CF84DD4DD086CF53950091A8
:100BA80052010395501710F445D07ECF1DD0002375
:100BB800C1F427DB00E010E029DBE6E0FEE030DBF3
:100BC80001E010E023DBE8E1FEE02ADB8BDD00E159
:100BD8000F930AEFBFDA0F910A95D1F751E040E081
:100BE800089551E044E008951F934F935F93EF9366
:100BF800FF9351E000915201051760F05F93552F64
:100C0800F8DD5F9105811681012B11F45395F2CF20
:100C180001E001C000E0FF91EF915F914F911F91BA
:100C280008950F91033011F05DDD3ECF41DDB6CF61
:100C3800089508950F931F938F939F93EF93FF93B6
:100C480050934001052FA7DDDCDAECE3F6E0D5DCB4
:100C5800D0DD028100FD75C0062F0F77023009F440
:100C680048C000E010E0D2DA00E5AADA052F005DFE
:100C7800A7DA0AE3A5DA00E2A3DABBDD04810630CD
:100C880060F4EAEBFDE0E00FE00F1127F11F05919A
:100C98001491E02FF12FC4DA08C0ECEEFDE0C0DAC1
:100CA800A8DD848186509927C1DA062F0F770023A3
:100CB80021F400E285DA0CE383DA01E010E0A6DA39
:100CC800EAE9FDE0ADDA95DD95818681AFDA062F98
:100CD8000F77013021F400E273DA0CE371DAE0EA0D
:100CE800FDE09EDAFF91EF919F918F911F910F91F7
:100CF800089500E010E08ADA00E562DA052F005D69
:100D08005FDAE2EFFDE08CDA67FD04C0EAEFFDE0B0
:100D180087DA03C0EEEFFDE083DA01E010E076DA6F
:100D2800EAE9FDE07DDA65DD958186817FDAE0EA32
:100D3800FDE076DAFF91EF919F918F911F910F91CE
:100D4800089500E010E062DA00E53ADA052F005D68
:100D580037DAEAEAFDE064DA01E010E057DAEAE9B6
:100D6800FDE05EDA46DD9581868160DAE4EBFDE040
:100D780057DAFF91EF919F918F911F910F910895ED
:100D8800063018F4102F01E00895102F165000E0D7
:100D9800089541706F733A002028412F422F53293C
:100DA80000003A2050524953414F0000202853294F
:100DB8000000C60DD00DD60DDA0DE00DE60D564536
:100DC800524D454C484F0000505245544F00504139
:100DD8005200494D50415200424149584F00414C40
:100DE800544F00004E554D3A200020436F6E663A2E
:100DF800200053494D00564F4C5441520000457253
:100E0800726F3A2053656D2041706F7374610000F2
:100E1800566F6C746120702F204D656E752E2E2EC6
:100E28000000EFD900E010E0F1D9E4EDF1E1F8D9E4
:100E380097D045E008956F937F938F939F93EF9397
:100E4800FF9351E0D6DC728163814481358126812C
:100E58007F936F934F933F932F930DD12F913F9192
:100E68007F916F914F91CDD900E010E0CFD900E587
:100E7800A7D9052F005DA4D9022F032B21F4EAE29C
:100E8800F2E1CED93FC040FD2CC0B3DC028100FDA9
:100E980024C040914001062F172F52D10023B1F0F2
:100EA800E2E1F2E1BDD9613069F0822F932F662724
:100EB800772703E2680F791F0A95E1F7862F972FA6
:100EC800B5D920C0822F932FB1D91CC0EEE1F2E131
:100ED800A7D9822F932FAAD915C0E2E0F2E1A0D9B1
:100EE80011C040914001062F172F2AD1002339F055
:100EF800E4EEF1E195D9822F932F98D903C0E2EF60
:100F0800F1E18ED901E010E081D9E6E3F2E188D978
:100F180082DC8CD90AEF1ED90AEF1CD90AEF1AD93C
:100F28000AEF18D90AEF16D90AEF14D90AEF12D91D
:100F38000AEF10D90AEF0ED90AEF0CD95395009190
:100F480052010395501708F001C07CCF51E040E0F2
:100F5800FF91EF919F918F917F916F9108950895DF
:100F68004F935F936F937F938F939F93EF93FF9329
:100F780084DC612F7AE4760F6F9350E07F935F9360
:100F8800E8E5F0E1E50F0027F01F84918093400128
:100F9800082FD2DB652F2AD000E8142FE9DA80DB8E
:100FA8005F917F91072F3ED0D5D85395553208F0E1
:100FB80050E07A9519F76F91E8E5F0E1E60F002720
:100FC800F01F84918093400111D04093490100E8BB
:100FD800142FCEDA082FB0DB182FFF91EF919F91D5
:100FE8008F917F916F915F914F9108950F938F9398
:100FF8009F938827992704E1860F4427941F0A9511
:10100800D9F74427853200E0900720F085529040B8
:101018004395F8CF4E5F443108F044519F918F912A
:101028000F910895083250F40E3150F4043150F401
:101038000A3050F4053050F40AEF08950AE0089594
:1010480004E1089508E2089500E5089506E9089581
:1010580000200F13041502191122061B0D240B1E64
:1010680008170A0518102101140E1F0916121D076A
:101078001C0C23031A000F931F934F935F936F93D6
:101088007F938F939F93EF93FF93B3DB028100FDD0
:1010980039C04091400195818681082F092B09F4B8
:1010A80044C0442361F40381013021F402810160CA
:1010B80002833BC01481112309F034C00AC00381A4
:1010C80014813ED0002309F42DC00381013009F4B6
:1010D8000EC0958186816627772704E2680F791FFD
:1010E8000A95E1F798DB860F971F9DDB1BC095815A
:1010F8008681880F991F682F792F8DDB860F971FA0
:1011080092DB10C003811481758166814091400192
:1011180017D0002321F07FDB860F971F84DB028125
:101128000E7F028300E005830683FF91EF919F9174
:101138008F917F916F915F914F911F910F910895BA
:101148001F935F936F93003019F4411759F12CC026
:10115800103029F4542F2DD0513021F125C01130F1
:1011680029F4542F26D05230E9F01EC0123031F441
:101178004423D1F0542F5170A9F016C0133031F424
:10118800442391F0542F517069F40EC0143029F49F
:10119800442351F0433130F007C0153029F443316E
:1011A80008F402C001E001C000E06F915F911F9157
:1011B8000895EF93FF930F93E8E7F7E0E50F002713
:1011C800F01F54910F91FF91EF9108954769726153
:1011D8006E646F20726F6C6574612E00204C4942FA
:1011E800455241444F21202B000020504552444590
:1011F800552050524953414F000020564149205034
:101208002F2050524953414F21002047414E484F0B
:101218005521202B00002050455244455521202DB2
:101228000000204E414F204A4F474F5500004E6F57
:0A123800766F2042616C3A2000003E
:00000001FF
