:020000020000FC
:0200000033C00B
:0200380040C1C5
:100068000FEF0DBF08E00EBF0FE304B90EEF0AB99A
:100078000EE307B92C9A2D9A9DD0B2D087D1C7D25A
:1000880002E004BD04E005BD0CE707BD02E00093F3
:100098006E0000E400937C0007E800937A0001E01A
:1000A8000093810004E00093520148E051E060E0D1
:1000B80001E00093400100E00093490100E810E0EE
:1000C80096D101E075D27894403011F406D3FCCF74
:1000D800413011F40BD4F8CF423011F494D4F4CF5A
:1000E800433011F491D4F0CF443011F46FD5ECCFF4
:1000F800453011F475D5E8CF463011F405D6E4CF74
:10010800473011F439D3E0CF4830F1F67ED3DCCF55
:100118001F9314E11A95F1F71F9108950F931F93F8
:1001280000E11AEF1A95F1F70A95D9F71F910F9187
:100138000895002319F0F2DF0A95E9F708953C982D
:10014800E7DF3D98E5DF3C9AE3DF3D9AE1DF08957C
:100158003C9ADEDF3D98DCDF3C98DADF08950F93A8
:1001680018E0000F10F03C9A01C03C98D1DF3D9890
:10017800CFDF3D9A1A95A9F73C98CADF3D98C8DFAA
:100188003D9AC6DF0F910895DADF1CE70F93012F20
:10019800E6DF00E8E4DF0F91E2DFDADF0895CFDF82
:1001A8001CE70F93012FDBDF00E4D9DF0F91D7DFC6
:1001B800CFDF08953C983D984498459804E1B9DF0D
:1001C80008E3E2DF05E0B5DF08E3DEDF01E0B1DFE9
:1001D80008E3DADF0CE0D8DF06E0D6DF01D00895C7
:1001E80001E0D2DF02E0A5DF08950F93002311F0AC
:1001F80000EC01C000E8010FC7DF0F9108950591D9
:10020800002311F0CCDFFBCF08950F931F934F937A
:100218005F936F937F93682F792F40E080E197E297
:100228006817790720F0681B790B4395F9CF4423A9
:1002380029F0405D042FB3DF51E001C050E040E0F9
:1002480088EE93E06817790720F0681B790B4395CF
:10025800F9CF442311F4552321F0405D042F9FDF8B
:1002680051E040E0643600E0700720F064567040CA
:100278004395F8CF442311F4552321F0405D042F12
:100288008EDF51E040E06A3018F06A504395FBCFAA
:10029800442311F4552319F0405D042F80DF605D7D
:1002A800062F7DDF7F916F915F914F911F910F9185
:1002B80008950F930FB70F931F937F938F939F9377
:1002C800EF93FF930091400110E00A3018F00A50B4
:1002D8001395FBCF75B174FF17C02D9A012F112705
:1002E800EEE4F3E0E00FF11F8491E8E5F3E0E00FBE
:1002F800F11F94910BB10F71082B0BB905B1007F59
:10030800092B05B92C9815C02C9A1127EEE4F3E0B7
:10031800E00FF11F8491E8E5F3E0E00FF11F9491FD
:100328000BB10F71082B0BB905B1007F092B05B96B
:100338002D98FF91EF919F918F917F911F910F9130
:100348000FBF0F911895E0C060E0C0A0A0E0E0E00A
:1003580007000B090C0D0F000F0D0F931F934F9300
:100368005F934398402F08D0412F06D0439A5F915E
:100378004F911F910F91089558E0419A47FF419876
:10038800429A440F42985A95C1F70895399A3A9A71
:100398003B9A439A0CE011E0E0DF0FE010E0DDDF6C
:1003A80009E010E0DADF0BE017E0D7DF0AE013E03E
:1003B800D4DF0ED008950F931F9301E0EAE4F1E033
:1003C8001191CBDF03950930D9F71F910F9108954B
:1003D8000F93EF93FF93EAE4F1E018E000E0019354
:1003E8001A95E9F7E8DFFF91EF910F9108950F93C0
:1003F8001F934F935F93EF93FF93402F512FEAE49E
:10040800F1E018E000E001931A95E9F7403829F483
:1004180008E100934D0100934E015F3F89F0550FAD
:100428001127E8E5F4E0E50FF11F059114910A950D
:10043800EAE4F1E0E00F4427F41F4081412B4083B8
:10044800BADFFF91EF915F914F911F910F9108953E
:100458000240012001100108010402020301040105
:1004680005010601070208040808081008200740CB
:1004780006800580048003800F934F93AF93BF934A
:10048800EF93FF93AAE4B1E048E005910D934A95F4
:10049800E1F791DFFF91EF91BF91AF914F910F91EC
:1004A8000895183C3C183C7E7E00103C5038143CA3
:1004B80010103C42020408080008183C3C66FFFF84
:1004C800660000917A00006400937A0000917A0037
:1004D80006FDFCCF8091780090917900843803E084
:1004E800900760F48A3802E0900750F4823C01E0FB
:1004F800900740F4863900E0900730F000E0089556
:1005080003E0089502E0089501E00895DADF00238A
:10051800E9F30F93D6DF0023E9F70F9108950F93BE
:100528001F9302E31AE025D01F910F9108950F93AE
:100538001F9304E610E51DD01F910F9108950F93A6
:100548001F9304E61CE315D004E1F3DD0DE410E588
:1005580010D004E1EEDD02E318E70BD01F910F91F4
:1005680008950F931F930AEF18E703D01F910F9177
:1005780008950F931F934F935F93402F512F5C9AC9
:10058800042F0AD05C98042F07D05A95C1F75F91C1
:100598004F911F910F9108951F931AE11A95F1F742
:1005A8000A95D9F71F91089559985A985B98089514
:1005B8000F93EF93FF93F8DF053290F4E0EFF5E047
:1005C800E00F0027F01F0491003029F0013029F0D6
:1005D800023029F005C0599A03C05A9A01C05B9AA3
:1005E800FF91EF910F9108950001020102010201AC
:1005F80002010202010201020102010102010201DB
:1006080002010201020201020102010201000F932C
:100618001F93EF93FF934F93E0E0F1E044E003E092
:10062800019308EE01930EE010E011930A95E9F7A3
:100638004A95A9F74F91FF91EF911F910F91089556
:100648000F931F938F93E0E0F1E0052F0A9531F0A7
:1006580080E11127E80FF11F0A95E1F78F911F91AB
:100668000F910895EF93FF93EBDF91918081FF91B4
:10067800EF910895EF93FF93E3DF91938083FF91C8
:10068800EF910895EF93FF93DBDF0281FF91EF91E4
:100698000895EF93FF93D4DF0283FF91EF910895BC
:1006A800EF93FF93CDDF0381148195818681FF91BC
:1006B800EF910895EF93FF93C3DF0383148395832A
:1006C8008683FF91EF9108950F931091840015325E
:1006D80010F01552FCCF0F9108951FD017DF0F931C
:1006E8000F91013081F4152F139500915201039554
:1006F800101708F011E0512F50934001052F58DFD3
:100708000EDF0BD0EBCF023011F447E00895033031
:1007180029F70DDF41E051E008950F931F938F9360
:100728009F93EF93FF93EAEAF4E0A6DE59DD00E039
:1007380010E05BDD00E533DD052F005D30DD80DF97
:10074800028100FD01C006C008E229DD00E527DDC1
:1007580009E225DDE8E9F8E052DD84DF56DD01E055
:1007680010E043DDE0EAF8E04ADDFF91EF919F9168
:100778008F911F910F91089524D0C8DE0F930F9188
:10078800013069F46FDF8C3A16E2910728F414E619
:10079800810F10E0911F6EDFC2DE13D0EECF023062
:1007A80059F460DF803010E09107B1F314E6811B43
:1007B80010E0910B5FDFF0CF0330F9F6B8DE40E0D0
:1007C80008950F931F938F939F93EF93FF93E2EBFB
:1007D800F4E052DE05DD00E010E007DD00E5DFDCD7
:1007E800052F005DDCDCE6EBF8E009DD3BDF0DDD25
:1007F80001E010E0FADCE2ECF8E001DDFF91EF91B6
:100808009F918F911F910F91089521D07FDE0F93B3
:100818000F91013049F4109152011395153008F0E9
:1008280011E0109352010BC0023061F41091520193
:100838001A95112309F414E01093520100C06FDED9
:1008480006D0E4CF033011F772DE40E008950F932D
:100858001F938F939F93EF93FF93E2ECF4E00CDEEA
:10086800BFDC00E010E0C1DCE6EDF8E0C8DC01E048
:1008780010E0BBDC809152019927C7DCE6EEF8E076
:10088800BEDCFF91EF919F918F911F910F91089579
:100898002042616C3A200000413A4D756461722033
:1008A800423A4372656420533A47697261002053A3
:1008B80065742042616C3A200000413A2B31303097
:1008C80020423A2D31303020533A4F4B00005174BA
:1008D80064204A6F6761646F7265733A0000202074
:1008E80020202028412F422F532900008ED00EDED1
:1008F8000F93A6DE028100FD7FC00F91603029F0C2
:10090800162F1F771130D9F04AC0013041F498DE14
:100918001481112309F41BE21A9514835FC0023075
:1009280041F48EDE148113951B3208F010E0148315
:1009380055C0033019F4FBDD61E050C0D8CF013059
:10094800C1F490DE282F392F7BDE958186818217AE
:10095800930768F414E6810F10E0911F28173907F0
:1009680010F4822F932F6CDE9583868337C0F9DDD0
:10097800BECF023071F464DE95818681182F192B61
:10098800B1F314E6811B10E0910B5ADE9583868340
:1009980025C0033019F4CBDD62E020C0A8CF0130B8
:1009A800A9F0023099F00330C1F467FD13C0BFDD30
:1009B80047DE0481CCD044DE03831483358126814D
:1009C80051DE821B930B56DE60E00BC0A8DD10E8F9
:1009D800612704C0ACDD60E001C089CFA0DD15D07F
:1009E80086CF5395009152010395501710F40DD0FE
:1009F8007ECF51E044E008950F91033011F0B1DD4E
:100A080076CF95DDEECF089508950F931F938F93BA
:100A18009F93EF93FF93E4DBEAEBF4E02DDD10DE28
:100A2800028100FD75C0062F0F77023009F448C017
:100A380000E010E0DADB00E5B2DB052F005DAFDB9C
:100A48000AE3ADDB00E2ABDBFBDD0481063060F4DA
:100A5800E8E8FBE0E00FE00F1127F11F0591149182
:100A6800E02FF12FCCDB08C0EAEBFBE0C8DBE8DDC8
:100A7800848186509927C9DB062F0F77002321F43C
:100A880000E28DDB0CE38BDB01E010E0AEDBE8E697
:100A9800FBE0B5DBD5DD95818681B7DB062F0F77C7
:100AA800013021F400E27BDB0CE379DBEEE6FBE0CE
:100AB800A6DBFF91EF919F918F911F910F91089560
:100AC80000E010E092DB00E56ADB052F005D67DBE4
:100AD800E0ECFBE094DB67FD04C0E8ECFBE08FDBB7
:100AE80003C0ECECFBE08BDB01E010E07EDBE8E62A
:100AF800FBE085DBA5DD9581868187DBEEE6FBE003
:100B08007EDBFF91EF919F918F911F910F91089537
:100B180000E010E06ADB00E542DB052F005D3FDB0B
:100B2800E8E7FBE06CDB01E010E05FDBE8E6FBE018
:100B380066DB86DD9581868168DBE2E8FBE05FDBCA
:100B4800FF91EF919F918F911F910F91089506301A
:100B580018F4102F01E00895102F165000E00895A2
:100B680041706F733A002028412F422F532900000B
:100B78003A2050524953414F000020285329000081
:100B8800940B9E0BA40BA80BAE0BB40B5645524D01
:100B9800454C484F0000505245544F0050415200B8
:100BA800494D50415200424149584F00414C544F21
:100BB80000004E554D3A200020436F6E663A2000E3
:100BC80053494D00564F4C544152000009DB00E098
:100BD80010E00BDBEEE7FFE012DB97D045E008956D
:100BE8006F937F938F939F93EF93FF9351E028DD4B
:100BF800728163814481358126817F936F934F93FE
:100C08003F932F930DD12F913F917F916F914F91EA
:100C1800E7DA00E010E0E9DA00E5C1DA052F005D67
:100C2800BEDA022F032B21F4E4EDFFE0E8DA3FC03F
:100C380040FD2CC005DD028100FD24C0409140012B
:100C4800062F172F52D10023B1F0ECEBFFE0D7DAD3
:100C5800613069F0822F932F6627772703E2680FA8
:100C6800791F0A95E1F7862F972FCFDA20C0822FB8
:100C7800932FCBDA1CC0E8ECFFE0C1DA822F932F68
:100C8800C4DA15C0ECEAFFE0BADA11C040914001BD
:100C9800062F172F2AD1002339F0EEE8FFE0AFDA4C
:100CA800822F932FB2DA03C0ECE9FFE0A8DA01E063
:100CB80010E09BDAE0EEFFE0A2DAD4DCA6DA0AEF75
:100CC80038DA0AEF36DA0AEF34DA0AEF32DA0AEFFC
:100CD80030DA0AEF2EDA0AEF2CDA0AEF2ADA0AEF0C
:100CE80028DA0AEF26DA5395009152010395501736
:100CF80008F001C07CCF51E040E0FF91EF919F9157
:100D08008F917F916F91089508954F935F936F939B
:100D18007F938F939F93EF93FF93D6DC612F7AE4B1
:100D2800760F6F9350E07F935F93E2E0FEE0E50F6C
:100D38000027F01F849180934001082F39DC652F2C
:100D48002AD000E8142F53DBEADB5F917F91072F4D
:100D58003ED0EFD95395553208F050E07A9519F7FF
:100D68006F91E2E0FEE0E60F0027F01F8491809388
:100D7800400111D04093490100E8142F38DB082FB7
:100D880017DC182FFF91EF919F918F917F916F91B1
:100D98005F914F9108950F938F939F938827992779
:100DA80004E1860F4427941F0A95D9F74427853212
:100DB80000E0900720F0855290404395F8CF4E5FB1
:100DC800443108F044519F918F910F910895083252
:100DD80050F40E3150F4043150F40A3050F4053018
:100DE80050F40AEF08950AE0089504E1089508E22E
:100DF800089500E5089506E9089500200F130415E5
:100E080002191122061B0D240B1E08170A051810BB
:100E18002101140E1F0916121D071C0C23031A00AA
:100E28000F931F934F935F936F937F938F939F932A
:100E3800EF93FF9305DC028100FD39C0409140012A
:100E480095818681082F092B09F444C0442361F455
:100E58000381013021F40281016002833BC01481C7
:100E6800112309F034C00AC0038114813ED0002345
:100E780009F42DC00381013009F40EC095818681E3
:100E88006627772704E2680F791F0A95E1F7EADBFE
:100E9800860F971FEFDB1BC095818681880F991FEE
:100EA800682F792FDFDB860F971FE4DB10C00381E3
:100EB8001481758166814091400117D0002321F08B
:100EC800D1DB860F971FD6DB02810E7F028300E0FD
:100ED80005830683FF91EF919F918F917F916F9189
:100EE8005F914F911F910F9108951F935F936F9397
:100EF800003019F4411759F12CC0103029F4542F3F
:100F08002DD0513021F125C0113029F4542F26D08D
:100F18005230E9F01EC0123031F44423D1F0542F7E
:100F28005170A9F016C0133031F4442391F0542FB6
:100F3800517069F40EC0143029F4442351F0433140
:100F480030F007C0153029F4433108F402C001E03D
:100F580001C000E06F915F911F910895EF93FF9397
:100F68000F93E0EFF5E0E50F0027F01F54910F9184
:100F7800FF91EF910895476972616E646F20726FF7
:100F88006C6574612E00204C4942455241444F2102
:100F9800202B0000205045524445552050524953BB
:100FA800414F00002056414920502F2050524953AC
:100FB800414F21002047414E484F5521202B00002A
:100FC8002050455244455521202D0000204E414FC8
:100FD800204A4F474F5500004E6F766F2042616C94
:040FE8003A200000AB
:00000001FF
