:020000020000FC
:0200000033C00B
:0200380039C1CC
:100068000FEF0DBF08E00EBF0FE304B90EEF0AB99A
:100078000EE307B92C9A2D9A96D0ABD080D1BCD27A
:1000880002E004BD04E005BD0CE707BD02E00093F3
:100098006E0000E400937C0007E800937A0001E01A
:1000A8000093810040E051E060E001E000934001EE
:1000B80000E00093490100E810E092D101E06DD220
:1000C8007894403011F4FED2FCCF413011F4ADD316
:1000D800F8CF423011F433D4F4CF433011F430D494
:1000E800F0CF443011F40ED5ECCF453011F414D5CF
:1000F800E8CF463011F4A1D5E4CF473011F72DD31E
:10010800E0CF1F9314E11A95F1F71F9108950F930B
:100118001F9300E11AEF1A95F1F70A95D9F71F9185
:100128000F910895002319F0F2DF0A95E9F7089571
:100138003C98E7DF3D98E5DF3C9AE3DF3D9AE1DF55
:1001480008953C9ADEDF3D98DCDF3C98DADF0895BD
:100158000F9318E0000F10F03C9A01C03C98D1DFD3
:100168003D98CFDF3D9A1A95A9F73C98CADF3D988C
:10017800C8DF3D9AC6DF0F910895DADF1CE70F93B9
:10018800012FE6DF00E8E4DF0F91E2DFDADF089510
:10019800CFDF1CE70F93012FDBDF00E4D9DF0F91DE
:1001A800D7DFCFDF08953C983D984498459804E1FF
:1001B800B9DF08E3E2DF05E0B5DF08E3DEDF01E0F1
:1001C800B1DF08E3DADF0CE0D8DF06E0D6DF01D0E4
:1001D800089501E0D2DF02E0A5DF08950F93002320
:1001E80011F000EC01C000E8010FC7DF0F9108957E
:1001F8000591002311F0CCDFFBCF08950F931F93D7
:100208004F935F936F937F93682F792F40E080E13E
:1002180097E26817790720F0681B790B4395F9CFA7
:10022800442329F0405D042FB3DF51E001C050E0C2
:1002380040E088EE93E06817790720F0681B790B97
:100248004395F9CF442311F4552321F0405D042F41
:100258009FDF51E040E0643600E0700720F064560C
:1002680070404395F8CF442311F4552321F0405DA5
:10027800042F8EDF51E040E06A3018F06A50439551
:10028800FBCF442311F4552319F0405D042F80DF80
:10029800605D062F7DDF7F916F915F914F911F9178
:1002A8000F9108950F930FB70F931F937F938F9319
:1002B8009F93EF93FF930091400110E00A3018F0EC
:1002C8000A501395FBCF75B174FF17C02D9A012FF3
:1002D8001127E0E4F3E0E00FF11F8491EAE4F3E092
:1002E800E00FF11F94910BB10F71082B0BB905B1F9
:1002F800007F092B05B92C9815C02C9A1127E0E42A
:10030800F3E0E00FF11F8491EAE4F3E0E00FF11F5E
:1003180094910BB10F71082B0BB905B1007F092B14
:1003280005B92D98FF91EF919F918F917F911F9122
:100338000F910FBF0F911895E0C060E0C0A0A0E03A
:10034800E0E007000B090C0D0F000F0D0F931F9332
:100358004F935F934398402F08D0412F06D0439A7C
:100368005F914F911F910F91089558E0419A47FF6F
:100378004198429A440F42985A95C1F70895399A7C
:100388003A9A3B9A439A0CE011E0E0DF0FE010E064
:10039800DDDF09E010E0DADF0BE017E0D7DF0AE085
:1003A80013E0D4DF0ED008950F931F9301E0EAE421
:1003B800F1E01191CBDF03950930D9F71F910F9127
:1003C80008950F93EF93FF93EAE4F1E018E000E05B
:1003D80001931A95E9F7E8DFFF91EF910F910895DE
:1003E8000F931F934F935F93EF93FF93402F512FDA
:1003F800EAE4F1E018E000E001931A95E9F74038E3
:1004080029F408E100934D0100934E015F3F89F004
:10041800550F1127EAE4F4E0E50FF11F0591149157
:100428000A95EAE4F1E0E00F4427F41F4081412BEC
:100438004083BADFFF91EF915F914F911F910F9128
:10044800089502400120011001080104020203017D
:10045800040105010601070208040808081008201D
:10046800074006800580048003800F934F93AF9365
:10047800BF93EF93FF93AAE4B1E048E005910D9391
:100488004A95E1F791DFFF91EF91BF91AF914F91BD
:100498000F910895183C3C183C7E7E00103C503863
:1004A800143C10103C4202040808000800917A002D
:1004B800006400937A0000917A0006FDFCCF8091D9
:1004C800780090917900843803E0900760F48A38C6
:1004D80002E0900750F4823C01E0900740F486392E
:1004E80000E0900730F000E0089503E0089502E08E
:1004F800089501E00895DADF0023E9F30F93D6DFCA
:100508000023E9F70F9108950F931F9302E31AE070
:1005180025D01F910F9108950F931F9304E610E5BE
:100528001DD01F910F9108950F931F9304E61CE3AC
:1005380015D004E1F7DD0DE410E510D004E1F2DD9B
:1005480002E318E70BD01F910F9108950F931F93A3
:100558000AEF18E703D01F910F9108950F931F9387
:100568004F935F93402F512F5C9A042F0AD05C98C9
:10057800042F07D05A95C1F75F914F911F910F91A2
:1005880008951F931AE11A95F1F70A95D9F71F9163
:10059800089559985A985B9808950F93EF93FF938D
:1005A800F8DF053290F4EAEDF5E0E00F0027F01FE0
:1005B8000491003029F0013029F0023029F005C0FB
:1005C800599A03C05A9A01C05B9AFF91EF910F9113
:1005D8000895000102010201020102010202010262
:1005E80001020102010102010201020102010202EB
:1005F80001020102010201000F931F93EF93FF9381
:100608004F93E0E0F1E044E003E0019308EE01934A
:100618000EE010E011930A95E9F74A95A9F74F9172
:10062800FF91EF911F910F9108950F931F938F934F
:10063800E0E0F1E0052F0A9531F080E11127E80F9D
:10064800F11F0A95E1F78F911F910F910895EF938C
:10065800FF93EBDF91918081FF91EF910895EF93E4
:10066800FF93E3DF91938083FF91EF910895EF93D8
:10067800FF93DBDF0281FF91EF910895EF93FF93E2
:10068800D4DF0283FF91EF910895EF93FF93CDDFBD
:100698000381148195818681FF91EF910895EF93ED
:1006A800FF93C3DF0383148395838683FF91EF91C0
:1006B80008950F9310918400153210F01552FCCF55
:1006C8000F9108951CD017DF0F930F91013069F433
:1006D800152F1395153008F011E0512F5093400154
:1006E800052F5BDF11DF0BD0EECF023011F447E0AE
:1006F8000895033041F710DF41E051E008950F936A
:100708001F938F939F93EF93FF93ECE9F4E0ADDE93
:1007180060DD00E010E062DD00E53ADD052F005DF8
:1007280037DD83DF028100FF06C008E231DD00E526
:100738002FDD09E22DDDE4EFF7E05ADD88DF5EDD2D
:1007480001E010E04BDDECEFF7E052DDFF91EF91B7
:100758009F918F911F910F91089524D0CCDE0F9314
:100768000F91013069F473DF8C3A16E2910728F48F
:1007780014E6810F10E0911F72DFC6DE13D0EECFB2
:10078800023059F464DF803010E09107B1F314E6C9
:10079800811B10E0910B63DFF0CF0330F9F6BCDE6C
:1007A80040E008950F931F938F939F93EF93FF93C8
:1007B800E4EAF4E05ADE0DDD00E010E00FDD00E5CC
:1007C800E7DC052F005DE4DCE2E1F8E011DD3FDF66
:1007D80015DD01E010E002DDEEE1F8E009DDFF9152
:1007E800EF919F918F911F910F9108952042616C15
:1007F8003A200000413A4D7564617220423A4372D2
:10080800656420533A476972610020536574204239
:10081800616C3A200000413A2B31303020423A2DA9
:1008280031303020533A4F4B00008BD064DE0F93A9
:10083800FCDE028100FD7CC00F91603029F0162F8C
:100848001F771130D9F04AC0013041F4EEDE14812F
:10085800112309F41BE21A9514835FC0023041F496
:10086800E4DE148113951B3208F010E0148355C0A0
:10087800033019F451DE61E050C0D8CF0130C1F423
:10088800E6DE282F392FD1DE9581868182179307DE
:1008980068F414E6810F10E0911F2817390710F447
:1008A800822F932FC2DE9583868337C04FDEBECF5B
:1008B800023071F4BADE95818681182F192BB1F3B5
:1008C80014E6811B10E0910BB0DE9583868325C06A
:1008D800033019F421DE62E020C0A8CF0130A9F06E
:1008E800023099F00330C1F467FD13C015DE9DDEB8
:1008F8000481C9D09ADE0383148335812681A7DE5B
:10090800821B930BACDE60E00BC0FEDD10E86127B4
:1009180004C002DE60E001C089CFF6DD12D086CFC8
:100928005395553010F40DD081CF51E044E008952F
:100938000F91033011F00ADE79CFEEDDF1CF089583
:1009480008950F931F938F939F93EF93FF9341DC29
:10095800ECEAF4E08ADD69DE028100FD75C0062F4D
:100968000F77023009F448C000E010E037DC00E5FA
:100978000FDC052F005D0CDC0AE30ADC00E208DC72
:1009880054DE0481063060F4E0ECFAE0E00FE00F9A
:100998001127F11F05911491E02FF12F29DC08C0D0
:1009A800E2EFFAE025DC41DE84818650992726DCD7
:1009B800062F0F77002321F400E2EADB0CE3E8DBE3
:1009C80001E010E00BDCE0EAFAE012DC2EDE9581B3
:1009D800868114DC062F0F77013021F400E2D8DB82
:1009E8000CE3D6DBE6EAFAE003DCFF91EF919F9196
:1009F8008F911F910F91089500E010E0EFDB00E563
:100A0800C7DB052F005DC4DBE8EFFAE0F1DB67FD2B
:100A180004C0E0E0FBE0ECDB03C0E4E0FBE0E8DB83
:100A280001E010E0DBDBE0EAFAE0E2DBFEDD9581E5
:100A38008681E4DBE6EAFAE0DBDBFF91EF919F9148
:100A48008F911F910F91089500E010E0C7DB00E53A
:100A58009FDB052F005D9CDBE0EBFAE0C9DB01E0E2
:100A680010E0BCDBE0EAFAE0C3DBDFDD95818681DC
:100A7800C5DBEAEBFAE0BCDBFF91EF919F918F9128
:100A88001F910F910895063018F4102F01E0089572
:100A9800102F165000E0089541706F733A00202817
:100AA800412F422F532900003A2050524953414FB9
:100AB8000000202853290000CC0AD60ADC0AE00AE4
:100AC800E60AEC0A5645524D454C484F0000505234
:100AD80045544F0050415200494D50415200424147
:100AE80049584F00414C544F00004E554D3A200094
:100AF80020436F6E663A200053494D00564F4C54C0
:100B08004152000066DB00E010E068DBE0EBFEE04D
:100B18006FDB94D045E008956F937F938F939F93F5
:100B2800EF93FF9351E081DD7281638144813581C8
:100B380026817F936F934F933F932F930AD12F91E1
:100B48003F917F916F914F9144DB00E010E046DBCD
:100B580000E51EDB052F005D1BDB022F032B21F4B4
:100B6800E6E0FFE045DB3FC040FD2CC05EDD0281D2
:100B780000FD24C040914001062F172F4FD10023BC
:100B8800B1F0EEEEFEE034DB613069F0822F932F96
:100B98006627772703E2680F791F0A95E1F7862F02
:100BA800972F2CDB20C0822F932F28DB1CC0EAEF65
:100BB800FEE01EDB822F932F21DB15C0EEEDFEE059
:100BC80017DB11C040914001062F172F27D10023B2
:100BD80039F0E0ECFEE00CDB822F932F0FDB03C033
:100BE800EEECFEE005DB01E010E0F8DAE2E1FFE020
:100BF800FFDA2DDD03DB0AEF95DA0AEF93DA0AEF65
:100C080091DA0AEF8FDA0AEF8DDA0AEF8BDA0AEF58
:100C180089DA0AEF87DA0AEF85DA0AEF83DA539579
:100C2800553008F001C07FCF51E040E0FF91EF91CF
:100C38009F918F917F916F91089508954F935F933E
:100C48006F937F938F939F93EF93FF9332DD612F81
:100C58007AE4760F6F9350E07F935F93E4E3FDE0CF
:100C6800E50F0027F01F849180934001082F95DC41
:100C7800652F2AD000E8142FB3DB46DC5F917F9103
:100C8800072F3ED04FDA5395553208F050E07A9549
:100C980019F76F91E4E3FDE0E60F0027F01F849158
:100CA8008093400111D04093490100E8142F98DB4C
:100CB800082F73DC182FFF91EF919F918F917F91EF
:100CC8006F915F914F9108950F938F939F9388270A
:100CD800992704E1860F4427941F0A95D9F74427DA
:100CE800853200E0900720F0855290404395F8CF78
:100CF8004E5F443108F044519F918F910F910895B0
:100D0800083250F40E3150F4043150F40A3050F4E3
:100D1800053050F40AEF08950AE0089504E10895B3
:100D280008E2089500E5089506E9089500200F13E4
:100D3800041502191122061B0D240B1E08170A059B
:100D480018102101140E1F0916121D071C0C23036D
:100D58001A000F931F934F935F936F937F938F9313
:100D68009F93EF93FF9361DC028100FD39C04091AE
:100D7800400195818681082F092B09F444C044233A
:100D880061F40381013021F40281016002833BC0D8
:100D98001481112309F034C00AC0038114813ED0A4
:100DA800002309F42DC00381013009F40EC0958198
:100DB80086816627772704E2680F791F0A95E1F78D
:100DC80046DC860F971F4BDC1BC095818681880FF8
:100DD800991F682F792F3BDC860F971F40DC10C0C6
:100DE80003811481758166814091400117D00023E9
:100DF80021F02DDC860F971F32DC02810E7F0283E3
:100E080000E005830683FF91EF919F918F917F9179
:100E18006F915F914F911F910F9108951F935F9369
:100E28006F93003019F4411759F12CC0103029F490
:100E3800542F2DD0513021F125C0113029F4542FD1
:100E480026D05230E9F01EC0123031F44423D1F0DC
:100E5800542F5170A9F016C0133031F4442391F087
:100E6800542F517069F40EC0143029F4442351F002
:100E7800433130F007C0153029F4433108F402C07B
:100E880001E001C000E06F915F911F910895EF9319
:100E9800FF930F93EAEDF5E0E50F0027F01F54915B
:100EA8000F91FF91EF910895476972616E646F2009
:100EB800726F6C6574612E00204C49424552414462
:100EC8004F21202B000020504552444555205052B8
:100ED8004953414F00002056414920502F2050527D
:100EE8004953414F21002047414E484F5521202B5F
:100EF80000002050455244455521202D0000204E29
:100F0800414F204A4F474F5500004E6F766F2042A1
:060F1800616C3A200000AC
:00000001FF
