:020000020000FC
:0200000033C00B
:0200380070C195
:100068000FEF0DBF08E00EBF0FE304B90EEE0AB99B
:100078000EE307B92C9A2D9ACDD0E2D06CD25ED47B
:1000880002E004BD04E005BD0CE707BD02E00093F3
:100098006E0000E400937C0007E800937A0001E01A
:1000A8000093810004E00093520149E040935A0113
:1000B80051E060E000E00093590100E00093530133
:1000C800009357010093580100935501009356017E
:1000D80007E00093540100E00093400101E0009321
:1000E800400100E00093490100E810E070D201E00F
:1000F80010D4789440935A01403019F40E94210595
:10010800F9CF413019F40E947406F4CF423019F443
:100118000E945C07EFCF433019F40E945D07EACFD5
:10012800443019F40E94A408E5CF453019F40E9420
:10013800B208E0CF463019F40E945D09DBCF4730A2
:1001480019F40E947505D6CF483019F40E94BE05EF
:10015800D1CF493079F60E940106CCCF1F9310E524
:100168001A95F1F71F9108950F931F9305E11DEF5D
:100178001A95F1F70A95D9F71F910F910895002361
:1001880019F0F2DF0A95E9F708953C98E7DF3D9802
:10019800E5DF3C9AE3DF3D9AE1DF08953C9ADEDF34
:1001A8003D98DCDF3C98DADF08950F9318E0000FE4
:1001B80010F03C9A01C03C98D1DF3D98CFDF3D9AC2
:1001C8001A95A9F73C98CADF3D98C8DF3D9AC6DF63
:1001D8000F910895DADF1CE70F93012FE6DF00E89F
:1001E800E4DF0F91E2DFDADF0F931F9305E012E3FC
:1001F8001A95F1F70A95D9F71F910F910895C5DF60
:100208001CE70F93012FD1DF00E4CFDF0F91CDDF83
:10021800C5DF08953C983D984498459802E3AFDFC0
:1002280008E3D8DF05E0ABDF08E3D4DF01E0A7DFB0
:1002380008E3D0DF0CE0CEDF06E0CCDF01D0089584
:1002480001E0C8DF02E09BDF08950F93002311F05F
:1002580000EC01C000E8010FBDDF0F910895059182
:10026800002311F0CCDFFBCF08950F931F934F931A
:100278005F936F937F93682F792F40E080E197E237
:100288006817790720F0681B790B4395F9CF442349
:1002980029F0405D042FB3DF51E001C050E040E099
:1002A80088EE93E06817790720F0681B790B43956F
:1002B800F9CF442311F4552321F0405D042F9FDF2B
:1002C80051E040E0643600E0700720F0645670406A
:1002D8004395F8CF442311F4552321F0405D042FB2
:1002E8008EDF51E040E06A3018F06A504395FBCF4A
:1002F800442311F4552319F0405D042F80DF605D1D
:10030800062F7DDF7F916F915F914F911F910F9124
:1003180008950F930FB70F931F937F938F939F9316
:10032800EF93FF9300915A01083019F0093009F052
:100338009EC00091530103950770009353017727DE
:1003480010915401011708F001C074601091550113
:10035800011708F001C0726010915601011708F0EA
:1003680001C0786000C0009157010395023308F47A
:1003780044C000E0009357011091400113951830D4
:1003880008F010E01093400100915801003099F0F6
:10039800013011F110915501112349F01A9510936C
:1003A80055011091540113951093540128C000E091
:1003B8000093580124C010915401112349F01A9553
:1003C800109354011091560113951093560117C0BC
:1003D80001E00093580113C010915601112349F010
:1003E8001A951093560110915501139510935501C4
:1003F80006C002E00093580102C000935701009123
:10040800400115B114FF19C02D9A1127ECE0F5E051
:10041800E00FF11F8491E4E1F5E0E00FF11F949102
:10042800807E7E700BB10171802B872B8BB905B153
:10043800007F092B05B92C9851C02C9A1127ECE1A3
:10044800F5E0E00FF11F8491E4E2F5E0E00FF11F21
:100458009491807E7E700BB10171802B872B8BB9B4
:1004680005B1007F092B05B92D9838C037C0009118
:10047800400110E00A3018F00A501395FBCF75B10F
:1004880074FF17C02D9A012F1127E8EFF4E0E00F51
:10049800F11F8491E2E0F5E0E00FF11F94910BB1B8
:1004A8000F71082B0BB905B1007F092B05B92C98E2
:1004B800DDCF2C9A1127E8EFF4E0E00FF11F8491CB
:1004C800E2E0F5E0E00FF11F94910BB10F71082BFA
:1004D8000BB905B1007F092B05B92D98FF91EF9154
:1004E8009F918F917F911F910F910FBF0F91189539
:1004F800E0C060E0C0A0A0E0E0E007000B090C0D40
:100508000F000F0D20000000000000000000000098
:1005180000010204002040800000000000000000EC
:10052800010000000F931F934F935F934398402F50
:1005380008D0412F06D0439A5F914F911F910F9198
:10054800089558E0419A47FF4198429A440F4298CB
:100558005A95C1F70895399A3A9A3B9A439A0CE00A
:1005680011E0E0DF0FE010E0DDDF09E010E0DADFA6
:100578000BE017E0D7DF0AE013E0D4DF19D00895C5
:100588000F931F934F935F9301E0E2E5F1E012911F
:1005980048E05527111F57954A95E1F7152FC2DFF7
:1005A80003950930A1F75F914F911F910F9108951D
:1005B8000F93EF93FF93EAE4F1E018E000E0019372
:1005C8001A95E9F7DDDFFF91EF910F9108950F93E9
:1005D8001F934F935F93EF93FF93402F512FEAE4BC
:1005E800F1E018E000E001931A95E9F7403829F4A2
:1005F80008E100934D0100934E015F3F89F0550FCC
:100608001127E2E6F6E0E50FF11F059114910A952E
:10061800EAE4F1E0E00F4427F41F4081412B4083D6
:10062800AFDFFF91EF915F914F911F910F91089567
:100638000F934F93AF93BF93EF93FF93AAE4B1E067
:1006480048E005910D934A95E1F79ADFFF91EF9104
:10065800BF91AF914F910F91089502400120011071
:100668000108010402020301040105010601070251
:100678000804080808100820074006800580048040
:100688000380183C3C183C7E7E00103C5038143CDB
:1006980010103C42020408080008183C3C66FFFFA2
:1006A800660000917A00006400937A0000917A0055
:1006B80006FDFCCF80917800909179008C3503E09D
:1006C800900750F4823602E0900740F48E3501E03E
:1006D800900730F401E0089500E0089503E00895DC
:1006E80002E00895DEDF0023E9F30F9304E10E949E
:1006F800C300D7DF0023E9F704E10E94C3000F918C
:1007080008950F931F9302E31AE025D01F910F91CC
:1007180008950F931F9304E610E51DD01F910F91C4
:1007280008950F931F9304E61CE315D004E127DD19
:100738000DE410E510D004E122DD02E318E70BD048
:100748001F910F9108950F931F930AEF18E703D095
:100758001F910F9108950F931F932F933F93002399
:1007680071F0549A202F312F5C9A022F15D05C9883
:10077800022F12D03A95C1F754985C9808C020E02F
:10078800312F022F09D0022F07D03A95D1F73F9188
:100798002F911F910F9108951F931AE11A95F1F760
:1007A8000A95D9F71F9108951F932F933F93EF93BD
:1007B800FF9300915901003021F4E6E6F6E13EE1AD
:1007C80015C0013021F4E4EEF6E13AE00FC0023042
:1007D80021F4E2ECF7E13AE009C0033021F4E4E562
:1007E800F8E13FE003C0EAEEF8E13AE03F932591F3
:1007F8003591222319F4332309F450C0109149018B
:100808001395143108F010E01093490100E80E9494
:10081800EB02132F00915901002349F01F77013093
:1008280031F44F93412F46954695140F4F9111235C
:1008380099F0012F003108F000E1101B1F93102FD1
:10084800022F0E94AF031F910E945503002379F3E2
:10085800202F0F91022F24C000915901002311F07D
:1008680037FDC5CF3F913F93032F11270A5010F052
:100878001395FCCF112389F0012F0F930E94550384
:10088800002329F0202F0F913F91022F09C00AE081
:100898000E94C3000F910A9581F7A9CF3F9100E00C
:1008A800FF91EF913F912F911F91089559985A9870
:1008B8005B9808950F93EF93FF93F8DF053290F458
:1008C800E4EFF8E0E00F0027F01F0491003029F072
:1008D800013029F0023029F005C0599A03C05A9A0C
:1008E80001C05B9AFF91EF910F91089500010201F9
:1008F80002010201020102020102010201020101D8
:1009080002010201020102010202010201020102C6
:1009180001000F93CBDF013039F0023039F003309A
:1009280039F0043039F008C05A9A06C05B9A04C0FE
:10093800599A02C05A9A599A0F9108950F931F9382
:10094800EF93FF934F93E0E0F1E044E003E001937D
:1009580008EE01930EE010E011930A95E9F74A9525
:10096800A9F74F91FF91EF911F910F9108950F9360
:100978001F938F93E0E0F1E0052F0A9531F080E1B5
:100988001127E80FF11F0A95E1F78F911F910F9139
:100998000895EF93FF93EBDF91918081FF91EF91A1
:1009A8000895EF93FF93E3DF91938083FF91EF9195
:1009B8000895EF93FF93DBDF0281FF91EF91089594
:1009C800EF93FF93D4DF0283FF91EF910895EF93A4
:1009D800FF93CDDF0381148195818681FF91EF918B
:1009E8000895EF93FF93C3DF03831483958386836E
:1009F800FF91EF9108950F931F93EF93FF934F93F8
:100A0800E0E0F1E044E0028100FD05C010E013835E
:100A180014831583168370964A95A9F74F91FF9111
:100A2800EF911F910F9108950F9310918400153243
:100A380010F01552FCCF0F91089520D053DE0F937C
:100A48000F91013081F4152F1395009152010395F0
:100A5800101708F011E0512F50934001052F59DF6E
:100A680050DE0CD0EBCF023011F447E0089503308C
:100A780029F74FDEC0DF41E051E008950F931F933F
:100A88008F939F93EF93FF9350934001052F41DF7E
:100A9800EAE8F6E0CDDDD4DB00E010E0D6DB00E5E7
:100AA800AEDB052F005DABDB62DF028100FD01C01C
:100AB80006C008E2A4DB00E5A2DB09E2A0DBECE764
:100AC800FCE0CDDB66DFD1DB01E010E0BEDBE4E873
:100AD800FCE0C5DBFF91EF919F918F911F910F91E2
:100AE800089524D0FFDD0F930F91023069F451DF90
:100AF8008C3A16E2910728F414E6810F10E0911F52
:100B080050DFFFDD13D0EECF013059F442DF8030E3
:100B180010E09107B1F314E6811B10E0910B41DF5F
:100B2800F0CF0330F9F6F5DD40E008950F931F93F9
:100B38008F939F93EF93FF93E2E9F6E079DD80DBF3
:100B480000E010E082DB00E55ADB052F005D57DB93
:100B5800EAE9FCE084DB1DDF88DB01E010E075DBFF
:100B6800E6EAFCE07CDBFF91EF919F918F911F916A
:100B78000F91089521D0B6DD0F930F91023049F4FB
:100B8800109152011395153008F011E0109352019D
:100B98000BC0013061F4109152011A95113008F41C
:100BA80014E01093520100C0ACDD06D0E4CF03304E
:100BB80011F7AFDD40E008950F931F938F939F9334
:100BC800EF93FF93E2EAF6E033DD3ADB00E010E072
:100BD8003CDBEAEBFCE043DB01E010E036DB809134
:100BE8005201992742DBEAECFCE039DBFF91EF91F7
:100BF8009F918F911F910F9108952F933F936F931A
:100C08007F9321D00E94D8030023E1F3033079F4C5
:100C18000E9455030023E1F71091590113951530EF
:100C280008F010E0109359010E948D03EACF0E944A
:100C380055030023E1F70E948D0348E07F916F91EF
:100C48003F912F9108950F931F938F939F93EF9345
:100C5800FF930E94240100E010E00E942901E8EDC2
:100C6800FCE00E943301FF91EF919F918F911F91BA
:100C78000F9108952042616C3A200000413A4D7569
:100C880064617220423A4372656420533A4769723C
:100C98006100205365742042616C3A200000413A9B
:100CA8002D31303020423A2B31303020533A4F4BDF
:100CB8000000517464204A6F6761646F7265733A0B
:100CC8000000202020202028412F422F53290000F7
:100CD800526F6C657461204672616E636573610062
:100CE8000E945E070E9476030F930E94BB04028154
:100CF80000FDD5C00F91603029F0162F1F771130F5
:100D0800F1F054C0013049F40E94BB04148111234E
:100D180009F411E31A95148370C0023049F40E9453
:100D2800BB0414811395113308F010E0148365C0D7
:100D3800033021F40E948D0361E05FC0D3CF0230FD
:100D4800E1F40E94CD04282F392F0E94BB0495811D
:100D580086818217930770F414E6810F10E0911FC3
:100D68002817390710F4822F932F0E94BB0495830C
:100D7800868343C00E94A703B5CF013081F40E9447
:100D8800BB0495818681182F192BA1F314E6811BCA
:100D980010E0910B0E94BB04958386832EC003301C
:100DA80021F40E948D0362E028C09CCF0130D9F065
:100DB8000230C9F0033001F567FD1AC00E948D03A7
:100DC8000E94BB0404810E942F080E94BB04038375
:100DD8001483358126810E94CD04821B930B0E94C7
:100DE800D50460E00FC00E94850310E8612705C0A4
:100DF8000E948D0360E001C075CF0E9485030E94A8
:100E08005E0770CF5395009152010395501718F45F
:100E18000E945E0767CF0E9435070023F9F40E94FD
:100E2800240100E010E00E942901E4E2F1E10E94BF
:100E3800330101E010E00E942901E6E3F1E10E949C
:100E480033010E94A70300E10F930AEF0E94C30039
:100E58000F910A95C9F751E040E0089551E044E048
:100E680008951F934F935F93EF93FF9351E0009181
:100E78005201051768F05F93552F0E94BB045F91DC
:100E880005811681012B11F45395F1CF01E001C0C2
:100E980000E0FF91EF915F914F911F9108950F919D
:100EA800033019F00E94A7031DCF0E948D03AACF1B
:100EB800089508950F931F938F939F93EF93FF9334
:100EC80050934001052F0E948D040E942401EAE9F5
:100ED800F6E00E941C030E94BB04028100FD93C03F
:100EE800062F0F77023009F45BC000E010E00E9483
:100EF800290100E50E940301052F005D0E940301FE
:100F08000AE30E94030100E20E9403010E94BB045D
:100F180004810C3068F4E0E9F0E1E00FE00F1127FC
:100F2800F11F05911491E02FF12F0E9433010BC09E
:100F3800EAE0F1E10E9433010E94BB0484818C50F5
:100F480099270E943901062F0F77002331F400E218
:100F58000E9403010CE30E94030101E010E00E94DB
:100F68002901E0E7F0E10E9433010E94BB0495816A
:100F780086810E943901062F0F77013031F400E293
:100F88000E9403010CE30E940301E6E7F0E10E94DE
:100F98003301FF91EF919F918F911F910F910895C8
:100FA80000E010E00E94290100E50E940301052FDE
:100FB800005D0E940301E0E1F1E10E94330167FD59
:100FC80005C0E8E1F1E10E94330104C0ECE1F1E180
:100FD8000E94330101E010E00E942901E0E7F0E1FE
:100FE8000E9433010E94BB04958186810E943901C9
:100FF800E6E7F0E10E943301FF91EF919F918F9115
:101008001F910F91089500E010E00E94290100E56A
:101018000E940301052F005D0E940301E0E8F0E152
:101028000E94330101E010E00E942901E0E7F0E1AD
:101038000E9433010E94BB04958186810E94390178
:10104800EAE8F0E10E943301FF91EF919F918F91BF
:101058001F910F9108950C3018F4102F01E0089596
:10106800102F1C5000E0089541706F733A0020283B
:10107800412F422F532900003A2050524953414FE3
:101088000000202853290000A810B210B810BC1086
:10109800C210C810CE10D810E210EC10F6100011D3
:1010A8005645524D454C484F0000415A554C00009A
:1010B80050415200494D50415200424149584F0059
:1010C800414C544F000031612044555A49410000B9
:1010D80032612044555A4941000033612044555A31
:1010E80049410000316120434F4C554E4100326167
:1010F80020434F4C554E4100336120434F4C554ED1
:1011080041004E554D3A200020436F6E663A20004C
:1011180053494D00564F4C54415200004572726F6E
:101128003A2053656D2041706F7374610000566FEB
:101138006C746120702F204D656E752E2E2E000068
:101148000E94240100E010E00E942901EAEFF5E185
:101158000E9433010E945E0945E008956F937F93D2
:101168008F939F93EF93FF9351E00E94BB0472818A
:1011780063814481358126817F936F934F933F9399
:101188002F930E94F0092F913F917F916F914F917A
:101198000E94240100E010E00E94290100E50E945D
:1011A8000301052F005D0E940301022F032B29F480
:1011B800EEE4F6E10E94330157C040FD3CC00E94B6
:1011C800BB04028100FD32C040914001062F172F59
:1011D8000E947D0A0023F9F00E949503E6E3F6E1F8
:1011E8000E943301613071F0822F932F6627772791
:1011F80003E2680F791F0A95E1F7862F972F0E945F
:10120800390132C0822F932F763010F0880F991F42
:101218000E94390129C00E94A703E2E4F6E10E9476
:101228003301822F932F0E9439011EC0E6E2F6E1B6
:101238000E94330119C040914001062F172F0E94C8
:101248007D0A002359F00E949503EAE0F6E10E9426
:101258003301822F932F0E94390106C00E94A703F1
:10126800E6E1F6E10E94330101E010E00E94290165
:10127800EAE5F6E10E9433010E94CD040E9439019B
:101288001F931EE00AEF0E94C3001A95D9F71F9119
:101298005395009152010395501708F001C065CF8E
:1012A80051E040E0FF91EF919F918F917F916F9175
:1012B800089508954F935F936F937F938F939F93B0
:1012C800EF93FF930E941805612F7AE4760F6F93CE
:1012D80050E07F935F93EAEBF3E1E50F0027F01FFF
:1012E800849180934001082F0E945E04652F2FD0BF
:1012F80000E8142F0E94EB020E9485035F917F9102
:10130800072F41D00E94C3005395553208F050E092
:101318007A95F9F66F91EAEBF3E1E60F0027F01FF3
:1013280084918093400113D04093490100E8142F21
:101338000E94EB02082F0E945E04182FFF91EF9184
:101348009F918F917F916F915F914F9108950F9326
:101358008F939F938827992704E1860F4427941F2A
:101368000A95D9F74427853200E0900720F0855286
:1013780090404395F8CF4E5F443108F044519F9117
:101388008F910F910895083250F40E3150F40431C2
:1013980050F40A3050F4053050F40AEF08950AE08A
:1013A800089504E1089508E2089500E5089506E91E
:1013B800089500200F13041502191122061B0D248D
:1013C8000B1E08170A0518102101140E1F09161202
:1013D8001D071C0C23031A000F931F934F935F9351
:1013E8006F937F938F939F93EF93FF93C0DA02815C
:1013F80000FD5BC04091400195818681082F092B33
:1014080009F46CC0442381F40381013041F4048160
:10141800063020F402810160028360C05CC0148140
:10142800112309F058C00DC00381148162D0002334
:1014380009F451C00381013021F40481063010F50C
:1014480012C0958186816627772704E2680F791F85
:1014580008F43EC00A95D1F79CDA860F971F08F466
:1014680037C09FDA38C095818681880F991F08F4A4
:101478002FC0682F792F8DDA860F971F08F428C0A0
:1014880090DA29C095818681682F792F660F771F9A
:1014980008F41EC0680F791F08F41AC07ADA860F9C
:1014A800971F08F415C07DDA16C003811481758171
:1014B8006681409140011DD0002331F06ADA860F21
:1014C800971F08F405C06DDA02810E7F028303C0FE
:1014D8008FEF9FEF66DA00E005830683FF91EF91B7
:1014E8009F918F917F916F915F914F911F910F9174
:1014F80008951F935F936F93003021F4411709F407
:1015080064C065C0103031F4542F66D0513009F4EE
:101518005CC05DC0113031F4542F5ED0523009F4F4
:1015280054C055C0123039F4442321F0542F51705F
:1015380009F44BC04CC0133039F4442321F0542F24
:10154800517009F042C043C0143031F4442319F0FB
:10155800433108F43AC03BC0153021F4433108F058
:1015680034C035C0163031F4442319F04D3008F436
:101578002CC02DC0173031F44D3018F0493108F423
:1015880024C025C0183031F4493118F0453208F428
:101598001CC01DC0193011F461E009C01A3011F4E3
:1015A80062E005C01B3011F460E001C010C04423A4
:1015B80059F0542F561740F0561B533010F0535023
:1015C800FCCF552309F401C002C001E001C000E0CE
:1015D8006F915F911F910895EF93FF930F93E4EF3D
:1015E800F8E0E50F0027F01F54910F91FF91EF915C
:1015F8000895476972616E646F20726F6C657461DB
:101608002E00204C4942455241444F212B00205086
:1016180045524445552050524953414F00002056E9
:10162800414920502F2050524953414F2100204713
:10163800414E484F5521202B00002050455244452B
:101648005521202D0000204E414F204A4F474F552D
:1016580000004E6F766F2042616C3A200000CA622B
:10166800CA62BF68AA75AA75BF68CA62E358FF4E06
:10167800FF4EE358CA62CA94E32CE3B0CA62CA6256
:10168800BF68AA75AA75BF68CA62E358FF4EFF4EC5
:10169800E358CA62E394FF27FF9CE358E358CA6201
:1016A800FF4EE358CA31BF34CA62FF4EE358CA310D
:1016B800BF34CA62E358FF4EE358AAEACA62CA6254
:1016C800BF68AA75AA75BF68CA62E358FF4EFF4E85
:1016D800E358CA62E394FF27FF9C000055FF55FFBB
:1016E800551C805E726A6577607E55FF55FF551CF4
:1016F80080FF803D80FF803D4CFF4CFF4C3E607E6C
:1017080055FF550E4CFF4C1F44FF443340FF40FF2C
:10171800407A80FF803D80FF803D60FF607C55FF00
:10172800550E607E6577726A65FF656E607E6577C7
:10173800726A805E87FF8733805E726A6577805E33
:1017480072FF72FF72FF72FF727E55FF55FF551CC4
:10175800805E726A6577607E55FF55FF551C80FF75
:10176800803D80FF803D4CFF4CFF4C3E607E55FF26
:10177800550E4CFF4C1F44FF443340FF40FF407A56
:1017880080FF803D80FF803D60FF607C55FF550EE7
:10179800607E6577726A65FF656E607E6577726ADE
:1017A800805E72FF72546577726A805E875980FF27
:1017B80080FF80FF80FF8038000098FF98FF980620
:1017C800CA62BF67AAFFAA69BF67CA62E3FFE32FBD
:1017D800E357BF6798FF98FF9806AA74BF67CAFFC8
:1017E800CAFFCA27BF67AAFFAA6998FF98FF980689
:1017F800BFFFBF50E3FFE32FE3FFE32F004DAAFF36
:10180800AAFFAA5E8FFF8F0B72FF72FF725C80FFC8
:10181800801B8FFF8F0B98FF98FF98FF9808BF6772
:1018280098FF98FF9806AA74BF67CAFFCA44CA629D
:10183800BF67AAFFAA6998FF98FF9806BFFFBF5025
:10184800E3FFE32FE3FFE32F004D000080FF80FF5D
:1018580080FF803A80FF80FF80FF803A80FF80FF12
:1018680080FF803AA1FFA1FFA1086BFF6B0480FFF6
:1018780080FF80FF803AA1FFA1FFA1086BFF6B04E6
:1018880080FF80FF80FF80FF80FF80FF807455FF0E
:1018980055FF55FF55FF55FF551A55FF55FF55FF85
:1018A80055FF55FF551A55FF55FF55FF55FF55FF75
:1018B800551A50FF50FF50FF50FF50136BFF6B0439
:1018C80087FF87FF87FF8723A1FFA1FFA1086BFF81
:1018D8006B0480FF80FF80FF80FF80FF80FF8074A3
:1018E80000004CFF4C434CFF4C43003A4CFF4C4328
:1018F800003A60FF601B4CFF4C4340FF40FF40FF35
:10190800405100748074007460FF60FF60FF605194
:101918008074007498FF98FF982672FF72FF720512
:1019280065FF65FF65276BFF6B0B72FF72FF720522
:1019380080FF802E4CFF4CFF4C2640FF40FF405C50
:1019480039FF39FF39FF39FF390A48FF484E40FF50
:101958004068003A4CFF4CFF4CFF4C0860FF601B8E
:1019680055FF552F65FF65FF65FF653A60FF60FF0E
:1019780060FF60518074007498FF98FF982672FF8A
:1019880072FF720565FF65FF65276BFF6B0B72FFC2
:1019980072FF720580FF802E4CFF4CFF4C2640FFE3
:1019A80040FF405C39FF39FF39FF39FF390A48FFEA
:1019B800484E40FF4068003A4CFF4CFF4CFF4C0833
:1019C80060FF601B55FF552F65FF65FF65FF653A92
:1019D800007440FF406844FF445A48FF484E50FF97
:1019E80050FF50734CFF4C43003A787B72FF7203F0
:1019F800BF4D003A72FF720360FF601B55FF552F01
:101A0800007450FF50FF5073003A55FF55FF55FFC3
:101A180055FF550E60FF60FF60FF60FF606C00FFC0
:101A28000069007440FF406844FF445A48FF484E2C
:101A380050FF50FF50734CFF4C43003A787B72FFC5
:101A48007203BF4D003A72FF720360FF601B55FFBF
:101A5800552F007450FF50FF5073003A55FF55FF43
:101A680055FF55FF550E60FF60FF60FF60FF606C1B
:101A780000FF006960FF601B60FF60FF603660FF69
:101A8800601B003A60FF601B55FF55FF555E4CFF19
:101A98004C4360FF60FF603672FF720380FF80FF77
:101AA80080FF805160FF601B60FF60FF603660FF51
:101AB800601B003A60FF601B55FF552F4CFF4C43DD
:101AC80000FF00FF00FF005260FF601B60FF60FF27
:101AD800603660FF601B003A60FF601B55FF55FFD2
:101AE800555E4CFF4C4360FF60FF603672FF720327
:101AF80080FF80FF80FF80514CFF4C434CFF4C43DC
:101B0800003A4CFF4C43003A60FF601B4CFF4CFF0F
:101B18004CFF4C0840FF40FF40FF4051007480FFDD
:101B28008068007460FF60FF60FF6051807400741B
:101B380098FF98FF982672FF72FF720565FF65FF90
:101B480065276BFF6B0B72FF72FF720580FF802E9B
:101B58004CFF4CFF4C2640FF40FF405C39FF39FFEB
:101B680039FF39FF390A48FF484E40FF4068003ABC
:101B78004CFF4CFF4CFF4C0860FF601B55FF552F76
:101B880065FF65FF65FF653A60FF60FF60FF6051B4
:101B98008074007498FF98FF982672FF72FF720590
:101BA80065FF65FF65276BFF6B0B72FF72FF7205A0
:101BB80080FF802E4CFF4CFF4C2640FF40FF405CCE
:101BC80039FF39FF39FF39FF390A48FF484E40FFCE
:101BD8004068003A4CFF4CFF4CFF4C0860FF601B0C
:101BE80055FF552F65FF65FF65FF653A4CFF4C4370
:101BF80060FF60FF60368074007478FF787872FF49
:101C0800720348FF48FF48FF481D48FF484E72FFCF
:101C180072FF72FF72FF720B55FF55FF550739FFB0
:101C280039FF39FF390839FF39FF39FF390839FFDA
:101C380039FF39FF390840FF40FF405C48FF48FF43
:101C480048364CFF4C4360FF60FF603672FF7203FA
:101C580080FF80FF80FF80514CFF4C4360FF60FF96
:101C680060368074007478FF787872FF720348FFDA
:101C780048FF48FF481D48FF484E72FF72FF72FF39
:101C880072FF720B65FF651348FF48FF48FF481D48
:101C980048FF484E48FF48FF48364CFF4CFF4C264B
:101CA80055FF55FF550760FF601B98FF98449861E2
:101CB800BFFFBFFFBF384CFF4C4360FF60FF60367B
:101CC8008074007478FF787872FF720348FF48FFC9
:101CD80048FF481D48FF484E72FF72FF72FF72FFAF
:101CE800720B55FF55FF550739FF39FF39FF390882
:101CF80039FF39FF39FF390839FF39FF39FF39080A
:101D080040FF40FF405C48FF48FF48364CFF4C43CB
:101D180060FF60FF603672FF720380FF80FF80FF04
:101D280080514CFF4C4360FF60FF60368074007444
:101D380078FF787872FF720348FF48FF48FF481D14
:101D480048FF484E72FF72FF72FF72FF720B65FF09
:101D5800651348FF48FF48FF481D48FF484E48FFA5
:101D680048FF48364CFF4CFF4C2655FF55FF55079A
:101D780060FF601B98FF98449861BFFFBFFFBF38A2
:101D880060FF601B60FF60FF603660FF601B003A09
:101D980060FF601B55FF552F4CFF4C4300FF00FFB1
:101DA80000FF005260FF601B60FF60FF603660FF4D
:101DB800601B003A60FF601B55FF55FF555E4CFFE6
:101DC8004C4360FF60FF603672FF720380FF80FF44
:101DD80080FF80514CFF4C434CFF4C43003A4CFF72
:101DE8004C43003A60FF601B4CFF4CFF4CFF4C0813
:101DF80040FF40FF40FF4051007480FF806800743E
:101E08004CFF4C4360FF60FF60368074007478FFBD
:101E1800787872FF720348FF48FF48FF481D48FF63
:101E2800484E72FF72FF72FF72FF720B55FF55FF2B
:101E3800550739FF39FF39FF390839FF39FF39FFAD
:101E4800390839FF39FF39FF390840FF40FF405C46
:101E580048FF48FF48364CFF4C4360FF60FF603640
:101E680072FF720380FF80FF80FF80514CFF4C435C
:101E780060FF60FF60368074007478FF787872FFC6
:101E8800720348FF48FF48FF481D48FF484E72FF4D
:101E980072FF72FF72FF720B65FF651348FF48FF00
:101EA80048FF481D48FF484E48FF48FF48364CFF4A
:101EB8004CFF4C2655FF55FF550760FF601B98FFE8
:101EC80098449861BFFFBFFFBF3860FF60FF60FFA5
:101ED800605180FF80FF805D98FF984472FF7244D4
:101EE80065FF655D72FF724478FF783A6BFF6B504F
:101EF80078FF783A8074AA5798FF98FF98FF98FF60
:041F0800984C0000F1
:00000001FF
