:020000020000FC
:0200000033C00B
:020038006DC297
:100068000FEF0DBF08E00EBF0FE304B90EEF0AB99A
:100078000EE307B92C9A2D9ACAD1DFD1B4D2A4D4F1
:1000880002E004BD04E005BD0CE707BD02E00093F3
:100098006E0000E400937C0007E800937A0001E01A
:1000A8000093810040E051E060E001E000934001EE
:1000B80000E00093490100E810E0C6D201E0A1D3B6
:1000C8007894403011F41DD0FCCF413011F444D164
:1000D800F8CF423011F444D1F4CF433011F441D178
:1000E800F0CF443011F43ED1ECCF453011F43BD180
:1000F800E8CF463011F438D1E4CF473011F7E7D0D4
:10010800E0CFB7D02CD30F930F91013069F4152F9E
:100118001395153008F011E0512F50934001052F29
:1001280070D326D3A6D0EECF023011F447E008955D
:10013800033041F762D4028100FD1BC070D48436BD
:1001480010E0910770F436D378D100E010E07AD14E
:10015800EEEEFBE081D10AEF19D10AEF17D189D071
:10016800D1CF8456904063D401E010E090E084E65B
:100178007ED443D47281717003D35FD100E010E064
:1001880061D1772321F0E0E5FCE066D103C0E0EA25
:10019800FBE062D176D46DD37723C9F0409140015A
:1001A80001E010E0CBD3002349F0F2D246D100E0C1
:1001B80010E048D1EEE2FCE04FD12FC0FBD23DD198
:1001C80000E010E03FD1E0E4FCE046D126C015D4C1
:1001D800028100FD19C04091400101E010E0AED35A
:1001E800002349F0D5D229D100E010E02BD1EEEF61
:1001F800FBE032D112C0DED220D100E010E022D1E3
:10020800EEE0FCE029D109C0BBD217D100E010E034
:1002180019D1EEE1FCE020D100C001E010E012D1DC
:10022800E0EBFBE019D1FBD31DD10AEFAFD00AEF09
:10023800ADD00AEFABD00AEFA9D00AEFA7D00AEFEA
:10024800A5D00AEFA3D00AEFA1D00AEF9FD00AEFFA
:100258009DD00AEF9BD00AEF99D050934001152FFB
:100268001A951093490100E8EFD1052FCAD201D0A1
:1002780049CF0F931F938F939F93EF93FF93E4E0DE
:10028800F7E027D2DAD000E010E0DCD000E5B4D007
:10029800052F005DB1D0B1D3028100FF06C008E28E
:1002A800ABD000E5A9D009E2A7D0E0EBFBE0D4D0C1
:1002B800B6D3D8D001E010E0C5D0E8EBFBE0CCD055
:1002C800FF91EF919F918F911F910F91089520D0E9
:1002D80046D20F930F91013059F4A1D38C3A16E20C
:1002E800910718F48C599F4FA2D342D211D0F0CF66
:1002F800023049F494D3803010E09107B1F384566A
:10030800904095D3F2CF033019F73AD240E00895E0
:100318000F931F938F939F93EF93FF93ECE0F7E076
:10032800D8D18BD000E010E08DD000E565D0052F46
:10033800005D62D0EEECFBE08FD071D393D001E08A
:1003480010E080D0EAEDFBE087D0FF91EF919F911C
:100358008F911F910F910895E4E1F7E0BAD10895C4
:10036800089508950895089508951F9314E11A951E
:10037800F1F71F9108950F931F9300E11AEF1A9553
:10038800F1F70A95D9F71F910F910895002319F0F5
:10039800F2DF0A95E9F708953C98E7DF3D98E5DF35
:1003A8003C9AE3DF3D9AE1DF08953C9ADEDF3D9811
:1003B800DCDF3C98DADF08950F9318E0000F10F0A7
:1003C8003C9A01C03C98D1DF3D98CFDF3D9A1A9501
:1003D800A9F73C98CADF3D98C8DF3D9AC6DF0F9160
:1003E8000895DADF1CE70F93012FE6DF00E8E4DF6A
:1003F8000F91E2DFDADF0895CFDF1CE70F93012FBB
:10040800DBDF00E4D9DF0F91D7DFCFDF08953C9819
:100418003D984498459804E1B9DF08E3E2DF05E038
:10042800B5DF08E3DEDF01E0B1DF08E3DADF0CE087
:10043800D8DF06E0D6DF01D0089501E0D2DF02E080
:10044800A5DF08950F93002311F000EC01C000E828
:10045800010FC7DF0F9108950591002311F0CCDF3C
:10046800FBCF08950F931F934F935F936F937F93E1
:10047800682F792F40E080E197E26817790720F02C
:10048800681B790B4395F9CF442329F0405D042F6D
:10049800B3DF51E001C050E040E088EE93E0681718
:1004A800790720F0681B790B4395F9CF442311F4A1
:1004B800552321F0405D042F9FDF51E040E0643672
:1004C80000E0700720F0645670404395F8CF44234D
:1004D80011F4552321F0405D042F8EDF51E040E0F8
:1004E8006A3018F06A504395FBCF442311F4552322
:1004F80019F0405D042F80DF605D062F7DDF7F915E
:100508006F915F914F911F910F9108950F930FB7BE
:100518000F931F937F938F939F93EF93FF93009174
:10052800400110E00A3018F00A501395FBCF75B15E
:1005380074FF17C02D9A012F1127E8EAF5E0E00FA4
:10054800F11F8491E2EBF5E0E00FF11F94910BB1FC
:100558000F71082B0BB905B1007F092B05B92C9831
:1005680015C02C9A1127E8EAF5E0E00FF11F8491F5
:10057800E2EBF5E0E00FF11F94910BB10F71082B3E
:100588000BB905B1007F092B05B92D98FF91EF91A3
:100598009F918F917F911F910F910FBF0F91189588
:1005A800E0C060E0C0A0A0E0E0E007000B090C0D8F
:1005B8000F000F0D0F931F934F935F934398402F96
:1005C80008D0412F06D0439A5F914F911F910F9108
:1005D800089558E0419A47FF4198429A440F42983B
:1005E8005A95C1F70895399A3A9A3B9A439A0CE07A
:1005F80011E0E0DF0FE010E0DDDF09E010E0DADF16
:100608000BE017E0D7DF0AE013E0D4DF0ED008953F
:100618000F931F9301E0EAE4F1E01191CBDF03951A
:100628000930D9F71F910F9108950F93EF93FF9316
:10063800EAE4F1E018E000E001931A95E9F7E8DF51
:10064800FF91EF910F9108950F931F934F935F932D
:10065800EF93FF93402F512FEAE4F1E018E000E018
:1006680001931A95E9F7403829F408E100934D0100
:1006780000934E015F3F89F0550F1127E2EBF6E03A
:10068800E50FF11F059114910A95EAE4F1E0E00FF6
:100698004427F41F4081412B4083BADFFF91EF913B
:1006A8005F914F911F910F91089502400120011011
:1006B8000108010402020301040105010601070201
:1006C80008040808081008200740068005800480F0
:1006D80003800F934F93AF93BF93EF93FF93AAE4D5
:1006E800B1E048E005910D934A95E1F791DFFF915C
:1006F800EF91BF91AF914F910F910895183C3C181D
:100708003C7E7E00103C5038143C10103C420204E1
:100718000808000800917A00006400937A000091AC
:100728007A0006FDFCCF809178009091790084389A
:1007380003E0900760F48A3802E0900750F4823CA6
:1007480001E0900740F4863900E0900730F000E0BF
:10075800089503E0089502E0089501E00895DADFBE
:100768000023E9F30F93D6DF0023E9F70F910895EB
:100778000F931F9302E31AE025D01F910F9108955C
:100788000F931F9304E610E51DD01F910F91089554
:100798000F931F9304E61CE315D004E1F7DD0DE485
:1007A80010E510D004E1F2DD02E318E70BD01F9149
:1007B8000F9108950F931F930AEF18E703D01F9125
:1007C8000F9108950F931F934F935F93402F512FCD
:1007D8005C9A042F0AD05C98042F07D05A95C1F769
:1007E8005F914F911F910F9108951F931AE11A95E8
:1007F800F1F70A95D9F71F91089559985A985B9877
:1008080008950F93EF93FF93F8DF053290F4E2E435
:10081800F8E0E00F0027F01F0491003029F00130C4
:1008280029F0023029F005C0599A03C05A9A01C02C
:100838005B9AFF91EF910F91089500010201020167
:100848000201020102020102010201020101020188
:100858000201020102010202010201020102010079
:100868000F9310918400153210F01552FCCF0F91A0
:1008780008950F931F934F935F936F937F938F9375
:100888009F93EF93FF93B9D0028100FD39C0409147
:10089800400195818681082F092B09F444C044231F
:1008A80061F40381013021F40281016002833BC0BD
:1008B8001481112309F034C00AC0038114813ED089
:1008C800002309F42DC00381013009F40EC095817D
:1008D80086816627772704E2680F791F0A95E1F772
:1008E8009ED0860F971FA3D01BC095818681880F45
:1008F800991F682F792F93D0860F971F98D010C013
:1009080003811481758166814091400117D00023CD
:1009180021F085D0860F971F8AD002810E7F02832F
:1009280000E005830683FF91EF919F918F917F915E
:100938006F915F914F911F910F9108951F935F934E
:100948006F93003019F4411759F12CC0103029F475
:10095800542F2DD0513021F125C0113029F4542FB6
:1009680026D05230E9F01EC0123031F44423D1F0C1
:10097800542F5170A9F016C0133031F4442391F06C
:10098800542F517069F40EC0143029F4442351F0E7
:10099800433130F007C0153029F4433108F402C060
:1009A80001E001C000E06F915F911F910895EF93FE
:1009B800FF930F93E2E4F8E0E50F0027F01F54914E
:1009C8000F91FF91EF9108950F931F93EF93FF936A
:1009D8004F93E0E0F1E044E003E0019308EE019377
:1009E8000EE010E011930A95E9F74A95A9F74F919F
:1009F800FF91EF911F910F9108950F931F938F937C
:100A0800E0E0F1E0052F0A9531F080E11127E80FC9
:100A1800F11F0A95E1F78F911F910F910895EF93B8
:100A2800FF93EBDF91918081FF91EF910895EF9310
:100A3800FF93E3DF91938083FF91EF910895EF9304
:100A4800FF93DBDF0281FF91EF910895EF93FF930E
:100A5800D4DF0283FF91EF910895EF93FF93CDDFE9
:100A68000381148195818681FF91EF910895EF9319
:100A7800FF93C3DF0383148395838683FF91EF91EC
:100A880008954F935F936F937F938F939F93EF9303
:100A9800FF93E6DE612F7AE4760F6F9350E07F9341
:100AA8005F93EAE7FBE0E50F0027F01F849180934E
:100AB8004001082FA6DE652F2AD000E8142FC4DDD8
:100AC80057DE5F917F91072F3ED060DC53955532FA
:100AD80008F050E07A9519F76F91EAE7FBE0E60F26
:100AE8000027F01F84918093400111D04093490161
:100AF80000E8142FA9DD082F84DE182FFF91EF914D
:100B08009F918F917F916F915F914F9108950F936E
:100B18008F939F938827992704E1860F4427941F72
:100B28000A95D9F74427853200E0900720F08552CE
:100B380090404395F8CF4E5F443108F044519F915F
:100B48008F910F910895083250F40E3150F404310A
:100B580050F40A3050F4053050F40AEF08950AE0D2
:100B6800089504E1089508E2089500E5089506E966
:100B7800089500200F13041502191122061B0D24D5
:100B88000B1E08170A0518102101140E1F0916124A
:100B98001D071C0C23031A00476972616E646F20DD
:100BA800726F6C6574612E002042616C3A200000FF
:100BB800413A4D7564617220423A4372656420532C
:100BC8003A4769726100205365742042616C3A208B
:100BD8000000413A2B31303020423A2D313030205C
:100BE800533A4F4B000053616C646F20496E737524
:100BF8006669632E210047414E484F552120283110
:100C08003030707429005045524445552120283110
:100C180030307074290056414920502F20505249D5
:100C280053414F2100004C4942455241444F212035
:100C3800282B3130302900005045524449444F2177
:100C480020282D31303029004769726F2050726991
:080C580073616F2E2E2E0000C7
:00000001FF
