:020000020000FC
:0200000033C00B
:0200380058C1AD
:100068000FEF0DBF08E00EBF0FE304B90EEF0AB99A
:100078000EE307B92C9A2D9A09D11ED19FD1C4D26B
:1000880002E004BD04E005BD0CE707BD02E00093F3
:100098006E0000E400937C0007E800937A0001E01A
:1000A8000093810040E051E060E000E000934001EF
:1000B8000093490100E810E0B2D100E06CD27894D6
:1000C800403011F419D0FCCF413011F487D0F8CF6B
:1000D800423011F484D0F4CF433011F481D0F0CF02
:1000E800443011F47ED0ECCF453011F47BD0E8CF0A
:1000F800463031F778D0E4CFDFD000E010E0E1D02F
:10010800E4E5F7E0E8D001E010E0DBD0E4E6F7E072
:10011800E2D0EFD10F9301E017E0D3D00F91013077
:1001280099F4109149011395143108F010E01093D7
:1001380049011093400100E872D1012F2CD2E2D17D
:10014800ECE6F7E0C8D0E5CF0230A1F41091490100
:10015800112311F413E101C01A951093490110936A
:10016800400100E85CD1012F16D2CCD1E4E7F7E0DA
:10017800B2D0CFCF033069F6CDD19ED000E010E0E9
:10018800A0D0E4E8F7E0A7D058D2CCD10AEF3DD010
:100198000AEF3BD00AEF39D00AEF37D00AEF35D053
:1001A8000AEF33D00AEF31D00AEF2FD00AEF2DD063
:1001B8000AEF2BD081D000E010E083D0E4E5F7E02F
:1001C8008AD001E010E07DD0E4E6F7E084D001E0D9
:1001D80017E077D0ECE7F7E07ED09BCF089508953D
:1001E80008950895089508951F9314E11A95F1F755
:1001F8001F9108950F931F9300E11AEF1A95F1F7D5
:100208000A95D9F71F910F910895002319F0F2DF8D
:100218000A95E9F708953C98E7DF3D98E5DF3C9AB1
:10022800E3DF3D9AE1DF08953C9ADEDF3D98DCDFAD
:100238003C98DADF08950F9318E0000F10F03C9A0D
:1002480001C03C98D1DF3D98CFDF3D9A1A95A9F7B8
:100258003C98CADF3D98C8DF3D9AC6DF0F910895E4
:10026800DADF1CE70F93012FE6DF00E8E4DF0F91E8
:10027800E2DFDADF0895CFDF1CE70F93012FDBDF22
:1002880000E4D9DF0F91D7DFCFDF08953C983D9880
:100298004498459804E1B9DF08E3E2DF05E0B5DFFB
:1002A80008E3DEDF01E0B1DF08E3DADF0CE0D8DFE6
:1002B80006E0D6DF01D0089501E0D2DF02E0A5DF35
:1002C80008950F93002311F000EC01C000E8010F1E
:1002D800C7DF0F9108950591002311F0CCDFFBCF04
:1002E80008950F930FB70F931F937F938F939F9347
:1002F800EF93FF930091400110E00A3018F00A5084
:100308001395FBCF75B174FF17C02D9A012F1127D4
:10031800EEE7F3E0E00FF11F8491E8E8F3E0E00F87
:10032800F11F94910BB10F71082B0BB905B1007F28
:10033800092B05B92C9815C02C9A1127EEE7F3E084
:10034800E00FF11F8491E8E8F3E0E00FF11F9491CA
:100358000BB10F71082B0BB905B1007F092B05B93B
:100368002D98FF91EF919F918F917F911F910F9100
:100378000FBF0F911895E0C060E0C0A0A0E0E0E0DA
:1003880007000B090C0D0F000F0D0F931F934F93D0
:100398005F934398402F08D0412F06D0439A5F912E
:1003A8004F911F910F91089558E0419A47FF419846
:1003B800429A440F42985A95C1F70895399A3A9A41
:1003C8003B9A439A0CE011E0E0DF0FE010E0DDDF3C
:1003D80009E010E0DADF0BE017E0D7DF0AE013E00E
:1003E800D4DF0ED008950F931F9301E0EAE4F1E003
:1003F8001191CBDF03950930D9F71F910F9108951B
:100408000F93EF93FF93EAE4F1E018E000E0019323
:100418001A95E9F7E8DFFF91EF910F9108950F938F
:100428001F934F935F93EF93FF93402F512FEAE46D
:10043800F1E018E000E001931A95E9F7403829F453
:1004480008E100934D0100934E015F3F89F0550F7D
:100458001127E8E8F4E0E50FF11F059114910A95DA
:10046800EAE4F1E0E00F4427F41F4081412B408388
:10047800BADFFF91EF915F914F911F910F9108950E
:1004880002400120011001080104020203010401D5
:10049800050106010702080408080810082007409B
:1004A800068005800480038000917A000064009330
:1004B8007A0000917A0006FDFCCF80917800909137
:1004C8007900843803E0900760F48A3802E09007E6
:1004D80050F4823C01E0900740F4863900E0900730
:1004E80030F000E0089503E0089502E0089501E087
:1004F8000895DADF0023E9F30F93D6DF0023E9F745
:100508000F9108950F931F9302E31AE025D01F91CE
:100518000F9108950F931F9304E610E51DD01F91C6
:100528000F9108950F931F9304E61CE315D004E17F
:100538006CDE0DE410E510D004E167DE02E318E795
:100548000BD01F910F9108950F931F930AEF18E78F
:1005580003D01F910F9108950F931F934F935F93AB
:10056800402F512F5C9A042F0AD05C98042F07D093
:100578005A95C1F75F914F911F910F9108951F935D
:100588001AE11A95F1F70A95D9F71F910895599824
:100598005A985B9808950F93EF93FF93F8DF05320D
:1005A80090F4E6EDF5E0E00F0027F01F049100302D
:1005B80029F0013029F0023029F005C0599A03C00A
:1005C8005A9A01C05B9AFF91EF910F91089500012B
:1005D80002010201020102010202010201020102FA
:1005E80001010201020102010201020201020102EB
:1005F800010201000F9310918400153210F015527A
:10060800FCCF0F91089508950F931F93EF93FF93D5
:100618004F93E0E0F1E044E003E0019308EE01933A
:100628000EE010E011930A95E9F74A95A9F74F9162
:10063800FF91EF911F910F9108954F935F936F93DF
:100648007F938F939F93EF93FF93D4DF612F7AE487
:10065800760F50E07F935F93EEE2F7E0E50F002717
:10066800F01F849180934001082F95DF652F29D0D2
:1006780000E8142FD4DE46DF5F917F91072F3DD02D
:10068800C4DD5395553208F050E07A9519F7EEE23B
:10069800F7E0E60F0027F01F84918093400111D006
:1006A8004093490100E8142FBADE082F74DF182F91
:1006B800FF91EF919F918F917F916F915F914F91F2
:1006C80008950F938F939F938827992704E1860FA6
:1006D8004427941F0A95D9F74427853200E09007EC
:1006E80020F0855290404395F8CF4D5F443108F093
:1006F80044519F918F910F910895083250F40E3113
:1007080050F4043150F40A3050F4053050F40AEF34
:1007180008950AE0089504E1089508E2089500E5BF
:10072800089506E9089500200F13041502191122EF
:10073800061B0D240B1E08170A0518102101140E9C
:100748001F0916121D071C0C23031A00417065723D
:10075800746520756D20626F74616F00426F7461FB
:100768006F3A200041202020202020004220202015
:100778002020200053656C6563742000476972610E
:0C0788006E646F20726F6C6574612E004F
:00000001FF
