:020000020000FC
:0200000033C00B
:02003800FDC009
:100068000FEF0DBF08E00EBF0FE304B90EEF0AB99A
:100078000EE307B92C9A2D9AAED0C3D011D102E065
:1000880004BD04E005BD0CE707BD02E000936E0067
:1000980000E400937C0007E800937A0040E051E018
:1000A80060E07894403011F419D0FCCF413011F45D
:1000B8003AD0F8CF423011F437D0F4CF433011F4AE
:1000C80034D0F0CF443011F431D0ECCF453011F4B6
:1000D8002ED0E8CF463031F72BD0E4CF92D000E0D5
:1000E80010E094D0EAEAF2E09BD001E010E08ED074
:1000F800EAEBF2E095D0C7D00F9301E017E086D085
:100108000F91013021F4E2ECF2E08AD0F4CF023012
:1001180021F4EAECF2E084D0EECF033061F7E2EDAF
:10012800F2E07ED0E8CF08950895089508950895DF
:1001380008951F9314E11A95F1F71F9108950F93ED
:100148001F9300E11AEF1A95F1F70A95D9F71F9155
:100158000F910895002319F0F2DF0A95E9F7089541
:100168003C98E7DF3D98E5DF3C9AE3DF3D9AE1DF25
:1001780008953C9ADEDF3D98DCDF3C98DADF08958D
:100188000F9318E0000F10F03C9A01C03C98D1DFA3
:100198003D98CFDF3D9A1A95A9F73C98CADF3D985C
:1001A800C8DF3D9AC6DF0F910895DADF1CE70F9389
:1001B800012FE6DF00E8E4DF0F91E2DFDADF0895E0
:1001C800CFDF1CE70F93012FDBDF00E4D9DF0F91AE
:1001D800D7DFCFDF08953C983D984498459804E1CF
:1001E800B9DF08E3E2DF05E0B5DF08E3DEDF01E0C1
:1001F800B1DF08E3DADF0CE0D8DF06E0D6DF01D0B4
:10020800089501E0D2DF02E0A5DF08950F930023EF
:1002180011F000EC01C000E8010FC7DF0F9108954D
:100228000591002311F0CCDFFBCF08950F930FB792
:100238000F930F910FBF0F911895089500917A00B1
:10024800006400937A0000917A0006FDFCCF80914B
:10025800780090917900843803E0900760F48A3838
:1002680002E0900750F4823C01E0900740F48639A0
:1002780000E0900730F000E0089503E0089502E000
:10028800089501E00895DADF0023E9F30F93D6DF3C
:100298000023E9F70F9108950895089508950895A2
:1002A800089541706572746520756D20626F746180
:1002B8006F00426F74616F3A200041202020202097
:1002C8002000422020202020200053656C656374A4
:0202D800200004
:00000001FF
