:020000020000FC
:0200000033C00B
:02003800EBC11A
:100068000FEF0DBF08E00EBF0FE304B90EEF0AB99A
:100078000EE307B92C9A2D9A48D15DD132D257D3C5
:1000880002E004BD04E005BD0CE707BD02E00093F3
:100098006E0000E400937C0007E800937A0001E01A
:1000A8000093810040E051E060E001E000934001EE
:1000B80000E00093490100E810E044D201E0FED2DC
:1000C8007894403011F41DD0FCCF413011F4C5D0E4
:1000D800F8CF423011F4C2D0F4CF433011F4BFD07E
:1000E800F0CF443011F4BCD0ECCF453011F4B9D086
:1000F800E8CF463011F4B6D0E4CF473011F76BD0D3
:10010800E0CF48D089D20F930F91013099F4152F81
:100118001395153008F011E0512F50934001152F19
:100128001A951093490100E80DD2052FC7D27DD248
:1001380031D0E8CF023011F447E00895033011F7C9
:100148007CD2F9D000E010E0FBD0E2E0F9E002D187
:100158004BD37BD20AEF98D00AEF96D00AEF94D00F
:100168000AEF92D00AEF90D00AEF8ED00AEF8CD027
:100178000AEF8AD00AEF88D00AEF86D05093400160
:10018800152F1A951093490100E8DCD1052F96D256
:1001980001D0B8CF0F931F938F939F93EF93FF9343
:1001A800CAD000E010E0CCD000E5A4D0052F005D57
:1001B800A1D0E2E1F9E0CED0E5D2D2D001E010E062
:1001C800BFD0EAE1F9E0C6D0FF91EF919F918F91FE
:1001D8001F910F91089520D01FD20F930F910130D6
:1001E80059F4D0D28C3A16E2910718F48C599F4FE3
:1001F800D1D21BD211D0F0CF023049F4C3D2803013
:1002080010E09107B1F384569040C4D2F2CF033086
:1002180019F713D240E008950F931F938F939F937C
:10022800EF93FF9388D000E010E08AD000E562D019
:10023800052F005D5FD0E0E3F9E08CD0A3D290D029
:1002480001E010E07DD0ECE3F9E084D0FF91EF917C
:100258009F918F911F910F91089508950895089582
:100268000895089508951F9314E11A95F1F71F91C1
:1002780008950F931F9300E11AEF1A95F1F70A9565
:10028800D9F71F910F910895002319F0F2DF0A950D
:10029800E9F708953C98E7DF3D98E5DF3C9AE3DF0E
:1002A8003D9AE1DF08953C9ADEDF3D98DCDF3C981B
:1002B800DADF08950F9318E0000F10F03C9A01C0A0
:1002C8003C98D1DF3D98CFDF3D9A1A95A9F73C9825
:1002D800CADF3D98C8DF3D9AC6DF0F910895DADF7F
:1002E8001CE70F93012FE6DF00E8E4DF0F91E2DF60
:1002F800DADF0895CFDF1CE70F93012FDBDF00E47F
:10030800D9DF0F91D7DFCFDF08953C983D98449807
:10031800459804E1B9DF08E3E2DF05E0B5DF08E36B
:10032800DEDF01E0B1DF08E3DADF0CE0D8DF06E06A
:10033800D6DF01D0089501E0D2DF02E0A5DF0895FD
:100348000F93002311F000EC01C000E8010FC7DF94
:100358000F9108950591002311F0CCDFFBCF08958C
:100368000F931F934F935F936F937F93682F792F0A
:1003780040E080E197E26817790720F0681B790B65
:100388004395F9CF442329F0405D042FB3DF51E0B2
:1003980001C050E040E088EE93E06817790720F04C
:1003A800681B790B4395F9CF442311F4552321F0A9
:1003B800405D042F9FDF51E040E0643600E07007A5
:1003C80020F0645670404395F8CF442311F4552328
:1003D80021F0405D042F8EDF51E040E06A3018F0D4
:1003E8006A504395FBCF442311F4552319F0405D1F
:1003F800042F80DF605D062F7DDF7F916F915F9115
:100408004F911F910F9108950F930FB70F931F935B
:100418007F938F939F93EF93FF930091400110E098
:100428000A3018F00A501395FBCF75B174FF17C046
:100438002D9A012F1127E4EAF4E0E00FF11F8491CF
:10044800EEEAF4E0E00FF11F94910BB10F71082B65
:100458000BB905B1007F092B05B92C9815C02C9A4A
:100468001127E4EAF4E0E00FF11F8491EEEAF4E0EA
:10047800E00FF11F94910BB10F71082B0BB905B167
:10048800007F092B05B92D98FF91EF919F918F91CE
:100498007F911F910F910FBF0F911895E0C060E0F9
:1004A800C0A0A0E0E0E007000B090C0D0F000F0D45
:1004B8000F931F934F935F934398402F08D0412F7A
:1004C80006D0439A5F914F911F910F91089558E07C
:1004D800419A47FF4198429A440F42985A95C1F76A
:1004E8000895399A3A9A3B9A439A0CE011E0E0DF72
:1004F8000FE010E0DDDF09E010E0DADF0BE017E0E5
:10050800D7DF0AE013E0D4DF0ED008950F931F93CE
:1005180001E0EAE4F1E01191CBDF03950930D9F766
:100528001F910F9108950F93EF93FF93EAE4F1E081
:1005380018E000E001931A95E9F7E8DFFF91EF91E1
:100548000F9108950F931F934F935F93EF93FF932A
:10055800402F512FEAE4F1E018E000E001931A95EA
:10056800E9F7403829F408E100934D0100934E0162
:100578005F3F89F0550F1127EEEAF5E0E50FF11F0F
:10058800059114910A95EAE4F1E0E00F4427F41F7D
:100598004081412B4083BADFFF91EF915F914F91EA
:1005A8001F910F91089502400120011001080104D4
:1005B80002020301040105010601070208040808F4
:1005C80008100820074006800580048003800091F9
:1005D8007A00006400937A0000917A0006FDFCCF4F
:1005E8008091780090917900843803E0900760F456
:1005F8008A3802E0900750F4823C01E0900740F40A
:10060800863900E0900730F000E0089503E008958F
:1006180002E0089501E00895DADF0023E9F30F937B
:10062800D6DF0023E9F70F9108950F931F9302E394
:100638001AE025D01F910F9108950F931F9304E698
:1006480010E51DD01F910F9108950F931F9304E695
:100658001CE315D004E118DE0DE410E510D004E128
:1006680013DE02E318E70BD01F910F9108950F9343
:100678001F930AEF18E703D01F910F9108950F9366
:100688001F934F935F93402F512F5C9A042F0AD0EA
:100698005C98042F07D05A95C1F75F914F911F912D
:1006A8000F9108951F931AE11A95F1F70A95D9F752
:1006B8001F91089559985A985B9808950F93EF934E
:1006C800FF93F8DF053290F4ECEFF6E0E00F002737
:1006D800F01F0491003029F0013029F0023029F090
:1006E80005C0599A03C05A9A01C05B9AFF91EF91CD
:1006F8000F910895000102010201020102010202A4
:1007080001020102010201010201020102010201CA
:10071800020201020102010201000F9310918400FC
:10072800153210F01552FCCF0F91089508950F93CC
:100738001F93EF93FF934F93E0E0F1E044E003E071
:10074800019308EE01930EE010E011930A95E9F782
:100758004A95A9F74F91FF91EF911F910F91089535
:100768000F931F938F93E0E0F1E0052F0A9531F086
:1007780080E11127E80FF11F0A95E1F78F911F918A
:100788000F910895EF93FF93EBDF91918081FF9193
:10079800EF910895EF93FF93E3DF91938083FF91A7
:1007A800EF910895EF93FF93DBDF0281FF91EF91C3
:1007B8000895EF93FF93D4DF0283FF91EF9108959B
:1007C800EF93FF93CDDF0381148195818681FF919B
:1007D800EF910895EF93FF93C3DF03831483958309
:1007E8008683FF91EF9108954F935F936F937F9363
:1007F8008F939F93EF93FF9390DF612F7AE4760FA7
:1008080050E07F935F93ECEDF8E0E50F0027F01FD1
:10081800849180934001082F51DF652F29D000E88B
:10082800142F90DE02DF5F917F91072F3DD02CDDE2
:100838005395553208F050E07A9519F7ECEDF8E049
:10084800E60F0027F01F84918093400111D0409358
:10085800490100E8142F76DE082F30DF182FFF91AA
:10086800EF919F918F917F916F915F914F91089533
:100878000F938F939F938827992704E1860F442726
:10088800941F0A95D9F74427853200E0900720F095
:10089800855290404395F8CF4D5F443108F044515C
:1008A8009F918F910F910895083250F40E3150F4B2
:1008B800043150F40A3050F4053050F40AEF08952A
:1008C8000AE0089504E1089508E2089500E508950E
:1008D80006E9089500200F13041502191122061BBA
:1008E8000D240B1E08170A0518102101140E1F09E4
:1008F80016121D071C0C23031A00476972616E64E7
:100908006F20726F6C6574612E002042616C3A2012
:100918000000413A4D7564617220423A4372656441
:1009280020533A4769726100205365742042616C14
:100938003A200000413A2B31303020423A2D3130F4
:080948003020533A4F4B000030
:00000001FF
